{
  "_format": "hh-sol-artifact-1",
  "contractName": "NFT",
  "sourceName": "contracts/NFT.sol",
  "abi": [
    {
      "inputs": [
        {
          "internalType": "address payable",
          "name": "_tellorAddress",
          "type": "address"
        }
      ],
      "stateMutability": "nonpayable",
      "type": "constructor"
    },
    {
      "anonymous": false,
      "inputs": [
        {
          "indexed": true,
          "internalType": "address",
          "name": "owner",
          "type": "address"
        },
        {
          "indexed": true,
          "internalType": "address",
          "name": "approved",
          "type": "address"
        },
        {
          "indexed": true,
          "internalType": "uint256",
          "name": "tokenId",
          "type": "uint256"
        }
      ],
      "name": "Approval",
      "type": "event"
    },
    {
      "anonymous": false,
      "inputs": [
        {
          "indexed": true,
          "internalType": "address",
          "name": "owner",
          "type": "address"
        },
        {
          "indexed": true,
          "internalType": "address",
          "name": "operator",
          "type": "address"
        },
        {
          "indexed": false,
          "internalType": "bool",
          "name": "approved",
          "type": "bool"
        }
      ],
      "name": "ApprovalForAll",
      "type": "event"
    },
    {
      "anonymous": false,
      "inputs": [
        {
          "indexed": false,
          "internalType": "uint256",
          "name": "_fromTokenId",
          "type": "uint256"
        },
        {
          "indexed": false,
          "internalType": "uint256",
          "name": "_toTokenId",
          "type": "uint256"
        }
      ],
      "name": "BatchMetadataUpdate",
      "type": "event"
    },
    {
      "anonymous": false,
      "inputs": [
        {
          "indexed": true,
          "internalType": "address",
          "name": "from",
          "type": "address"
        },
        {
          "indexed": true,
          "internalType": "address",
          "name": "to",
          "type": "address"
        },
        {
          "indexed": true,
          "internalType": "uint256",
          "name": "tokenId",
          "type": "uint256"
        }
      ],
      "name": "Transfer",
      "type": "event"
    },
    {
      "inputs": [
        {
          "internalType": "address",
          "name": "to",
          "type": "address"
        },
        {
          "internalType": "uint256",
          "name": "tokenId",
          "type": "uint256"
        }
      ],
      "name": "approve",
      "outputs": [],
      "stateMutability": "nonpayable",
      "type": "function"
    },
    {
      "inputs": [
        {
          "internalType": "address",
          "name": "owner",
          "type": "address"
        }
      ],
      "name": "balanceOf",
      "outputs": [
        {
          "internalType": "uint256",
          "name": "",
          "type": "uint256"
        }
      ],
      "stateMutability": "view",
      "type": "function"
    },
    {
      "inputs": [
        {
          "internalType": "uint256",
          "name": "tokenId",
          "type": "uint256"
        }
      ],
      "name": "getApproved",
      "outputs": [
        {
          "internalType": "address",
          "name": "",
          "type": "address"
        }
      ],
      "stateMutability": "view",
      "type": "function"
    },
    {
      "inputs": [
        {
          "internalType": "bytes32",
          "name": "_queryId",
          "type": "bytes32"
        },
        {
          "internalType": "uint256",
          "name": "_timestamp",
          "type": "uint256"
        }
      ],
      "name": "getDataAfter",
      "outputs": [
        {
          "internalType": "bytes",
          "name": "_value",
          "type": "bytes"
        },
        {
          "internalType": "uint256",
          "name": "_timestampRetrieved",
          "type": "uint256"
        }
      ],
      "stateMutability": "view",
      "type": "function"
    },
    {
      "inputs": [
        {
          "internalType": "bytes32",
          "name": "_queryId",
          "type": "bytes32"
        },
        {
          "internalType": "uint256",
          "name": "_timestamp",
          "type": "uint256"
        }
      ],
      "name": "getDataBefore",
      "outputs": [
        {
          "internalType": "bytes",
          "name": "_value",
          "type": "bytes"
        },
        {
          "internalType": "uint256",
          "name": "_timestampRetrieved",
          "type": "uint256"
        }
      ],
      "stateMutability": "view",
      "type": "function"
    },
    {
      "inputs": [],
      "name": "getEthSpotPrice",
      "outputs": [
        {
          "internalType": "uint256",
          "name": "",
          "type": "uint256"
        }
      ],
      "stateMutability": "view",
      "type": "function"
    },
    {
      "inputs": [],
      "name": "getEthSpotPrices",
      "outputs": [
        {
          "internalType": "uint256",
          "name": "",
          "type": "uint256"
        },
        {
          "internalType": "uint256",
          "name": "",
          "type": "uint256"
        }
      ],
      "stateMutability": "view",
      "type": "function"
    },
    {
      "inputs": [
        {
          "internalType": "bytes32",
          "name": "_queryId",
          "type": "bytes32"
        },
        {
          "internalType": "uint256",
          "name": "_timestamp",
          "type": "uint256"
        }
      ],
      "name": "getIndexForDataAfter",
      "outputs": [
        {
          "internalType": "bool",
          "name": "_found",
          "type": "bool"
        },
        {
          "internalType": "uint256",
          "name": "_index",
          "type": "uint256"
        }
      ],
      "stateMutability": "view",
      "type": "function"
    },
    {
      "inputs": [
        {
          "internalType": "bytes32",
          "name": "_queryId",
          "type": "bytes32"
        },
        {
          "internalType": "uint256",
          "name": "_timestamp",
          "type": "uint256"
        }
      ],
      "name": "getIndexForDataBefore",
      "outputs": [
        {
          "internalType": "bool",
          "name": "_found",
          "type": "bool"
        },
        {
          "internalType": "uint256",
          "name": "_index",
          "type": "uint256"
        }
      ],
      "stateMutability": "view",
      "type": "function"
    },
    {
      "inputs": [
        {
          "internalType": "bytes32",
          "name": "_queryId",
          "type": "bytes32"
        },
        {
          "internalType": "uint256",
          "name": "_timestamp",
          "type": "uint256"
        },
        {
          "internalType": "uint256",
          "name": "_maxAge",
          "type": "uint256"
        },
        {
          "internalType": "uint256",
          "name": "_maxCount",
          "type": "uint256"
        }
      ],
      "name": "getMultipleValuesBefore",
      "outputs": [
        {
          "internalType": "bytes[]",
          "name": "_values",
          "type": "bytes[]"
        },
        {
          "internalType": "uint256[]",
          "name": "_timestamps",
          "type": "uint256[]"
        }
      ],
      "stateMutability": "view",
      "type": "function"
    },
    {
      "inputs": [
        {
          "internalType": "bytes32",
          "name": "_queryId",
          "type": "bytes32"
        }
      ],
      "name": "getNewValueCountbyQueryId",
      "outputs": [
        {
          "internalType": "uint256",
          "name": "",
          "type": "uint256"
        }
      ],
      "stateMutability": "view",
      "type": "function"
    },
    {
      "inputs": [
        {
          "internalType": "bytes32",
          "name": "_queryId",
          "type": "bytes32"
        },
        {
          "internalType": "uint256",
          "name": "_timestamp",
          "type": "uint256"
        }
      ],
      "name": "getReporterByTimestamp",
      "outputs": [
        {
          "internalType": "address",
          "name": "",
          "type": "address"
        }
      ],
      "stateMutability": "view",
      "type": "function"
    },
    {
      "inputs": [
        {
          "internalType": "bytes32",
          "name": "_queryId",
          "type": "bytes32"
        },
        {
          "internalType": "uint256",
          "name": "_index",
          "type": "uint256"
        }
      ],
      "name": "getTimestampbyQueryIdandIndex",
      "outputs": [
        {
          "internalType": "uint256",
          "name": "",
          "type": "uint256"
        }
      ],
      "stateMutability": "view",
      "type": "function"
    },
    {
      "inputs": [],
      "name": "idMappingContract",
      "outputs": [
        {
          "internalType": "contract IMappingContract",
          "name": "",
          "type": "address"
        }
      ],
      "stateMutability": "view",
      "type": "function"
    },
    {
      "inputs": [
        {
          "internalType": "address",
          "name": "owner",
          "type": "address"
        },
        {
          "internalType": "address",
          "name": "operator",
          "type": "address"
        }
      ],
      "name": "isApprovedForAll",
      "outputs": [
        {
          "internalType": "bool",
          "name": "",
          "type": "bool"
        }
      ],
      "stateMutability": "view",
      "type": "function"
    },
    {
      "inputs": [
        {
          "internalType": "bytes32",
          "name": "_queryId",
          "type": "bytes32"
        },
        {
          "internalType": "uint256",
          "name": "_timestamp",
          "type": "uint256"
        }
      ],
      "name": "isInDispute",
      "outputs": [
        {
          "internalType": "bool",
          "name": "",
          "type": "bool"
        }
      ],
      "stateMutability": "view",
      "type": "function"
    },
    {
      "inputs": [],
      "name": "name",
      "outputs": [
        {
          "internalType": "string",
          "name": "",
          "type": "string"
        }
      ],
      "stateMutability": "view",
      "type": "function"
    },
    {
      "inputs": [
        {
          "internalType": "uint256",
          "name": "tokenId",
          "type": "uint256"
        }
      ],
      "name": "ownerOf",
      "outputs": [
        {
          "internalType": "address",
          "name": "",
          "type": "address"
        }
      ],
      "stateMutability": "view",
      "type": "function"
    },
    {
      "inputs": [
        {
          "internalType": "bytes32",
          "name": "_queryId",
          "type": "bytes32"
        },
        {
          "internalType": "uint256",
          "name": "_timestamp",
          "type": "uint256"
        }
      ],
      "name": "retrieveData",
      "outputs": [
        {
          "internalType": "bytes",
          "name": "",
          "type": "bytes"
        }
      ],
      "stateMutability": "view",
      "type": "function"
    },
    {
      "inputs": [
        {
          "internalType": "address",
          "name": "to",
          "type": "address"
        }
      ],
      "name": "safeMint",
      "outputs": [
        {
          "internalType": "uint256",
          "name": "",
          "type": "uint256"
        }
      ],
      "stateMutability": "nonpayable",
      "type": "function"
    },
    {
      "inputs": [
        {
          "internalType": "address",
          "name": "from",
          "type": "address"
        },
        {
          "internalType": "address",
          "name": "to",
          "type": "address"
        },
        {
          "internalType": "uint256",
          "name": "tokenId",
          "type": "uint256"
        }
      ],
      "name": "safeTransferFrom",
      "outputs": [],
      "stateMutability": "nonpayable",
      "type": "function"
    },
    {
      "inputs": [
        {
          "internalType": "address",
          "name": "from",
          "type": "address"
        },
        {
          "internalType": "address",
          "name": "to",
          "type": "address"
        },
        {
          "internalType": "uint256",
          "name": "tokenId",
          "type": "uint256"
        },
        {
          "internalType": "bytes",
          "name": "data",
          "type": "bytes"
        }
      ],
      "name": "safeTransferFrom",
      "outputs": [],
      "stateMutability": "nonpayable",
      "type": "function"
    },
    {
      "inputs": [
        {
          "internalType": "address",
          "name": "operator",
          "type": "address"
        },
        {
          "internalType": "bool",
          "name": "approved",
          "type": "bool"
        }
      ],
      "name": "setApprovalForAll",
      "outputs": [],
      "stateMutability": "nonpayable",
      "type": "function"
    },
    {
      "inputs": [
        {
          "internalType": "address",
          "name": "_addy",
          "type": "address"
        }
      ],
      "name": "setIdMappingContract",
      "outputs": [],
      "stateMutability": "nonpayable",
      "type": "function"
    },
    {
      "inputs": [
        {
          "internalType": "bytes4",
          "name": "interfaceId",
          "type": "bytes4"
        }
      ],
      "name": "supportsInterface",
      "outputs": [
        {
          "internalType": "bool",
          "name": "",
          "type": "bool"
        }
      ],
      "stateMutability": "view",
      "type": "function"
    },
    {
      "inputs": [],
      "name": "symbol",
      "outputs": [
        {
          "internalType": "string",
          "name": "",
          "type": "string"
        }
      ],
      "stateMutability": "view",
      "type": "function"
    },
    {
      "inputs": [],
      "name": "tellor",
      "outputs": [
        {
          "internalType": "contract ITellor",
          "name": "",
          "type": "address"
        }
      ],
      "stateMutability": "view",
      "type": "function"
    },
    {
      "inputs": [
        {
          "internalType": "uint256",
          "name": "tokenId",
          "type": "uint256"
        }
      ],
      "name": "tokenURI",
      "outputs": [
        {
          "internalType": "string",
          "name": "",
          "type": "string"
        }
      ],
      "stateMutability": "view",
      "type": "function"
    },
    {
      "inputs": [
        {
          "internalType": "address",
          "name": "from",
          "type": "address"
        },
        {
          "internalType": "address",
          "name": "to",
          "type": "address"
        },
        {
          "internalType": "uint256",
          "name": "tokenId",
          "type": "uint256"
        }
      ],
      "name": "transferFrom",
      "outputs": [],
      "stateMutability": "nonpayable",
      "type": "function"
    },
    {
      "inputs": [
        {
          "internalType": "bytes32",
          "name": "_id",
          "type": "bytes32"
        }
      ],
      "name": "valueFor",
      "outputs": [
        {
          "internalType": "int256",
          "name": "_value",
          "type": "int256"
        },
        {
          "internalType": "uint256",
          "name": "_timestamp",
          "type": "uint256"
        },
        {
          "internalType": "uint256",
          "name": "_statusCode",
          "type": "uint256"
        }
      ],
      "stateMutability": "view",
      "type": "function"
    }
  ],
  "bytecode": "0x60806040526040518060600160405280603f8152602001620044fa603f9139600990816200002e9190620003ca565b506040518060600160405280603f815260200162004539603f9139600a9081620000599190620003ca565b5034801562000066575f80fd5b50604051620045783803806200457883398181016040528101906200008c919062000513565b806040518060400160405280601681526020017f6265617220616e642062756c6c20626f6f7463616d70000000000000000000008152506040518060400160405280600381526020017f4242420000000000000000000000000000000000000000000000000000000000815250815f9081620001099190620003ca565b5080600190816200011b9190620003ca565b5050508060065f6101000a81548173ffffffffffffffffffffffffffffffffffffffff021916908373ffffffffffffffffffffffffffffffffffffffff160217905550505062000543565b5f81519050919050565b7f4e487b71000000000000000000000000000000000000000000000000000000005f52604160045260245ffd5b7f4e487b71000000000000000000000000000000000000000000000000000000005f52602260045260245ffd5b5f6002820490506001821680620001e257607f821691505b602082108103620001f857620001f76200019d565b5b50919050565b5f819050815f5260205f209050919050565b5f6020601f8301049050919050565b5f82821b905092915050565b5f600883026200025c7fffffffffffffffffffffffffffffffffffffffffffffffffffffffffffffffff826200021f565b6200026886836200021f565b95508019841693508086168417925050509392505050565b5f819050919050565b5f819050919050565b5f620002b2620002ac620002a68462000280565b62000289565b62000280565b9050919050565b5f819050919050565b620002cd8362000292565b620002e5620002dc82620002b9565b8484546200022b565b825550505050565b5f90565b620002fb620002ed565b62000308818484620002c2565b505050565b5b818110156200032f57620003235f82620002f1565b6001810190506200030e565b5050565b601f8211156200037e576200034881620001fe565b620003538462000210565b8101602085101562000363578190505b6200037b620003728562000210565b8301826200030d565b50505b505050565b5f82821c905092915050565b5f620003a05f198460080262000383565b1980831691505092915050565b5f620003ba83836200038f565b9150826002028217905092915050565b620003d58262000166565b67ffffffffffffffff811115620003f157620003f062000170565b5b620003fd8254620001ca565b6200040a82828562000333565b5f60209050601f83116001811462000440575f84156200042b578287015190505b620004378582620003ad565b865550620004a6565b601f1984166200045086620001fe565b5f5b82811015620004795784890151825560018201915060208501945060208101905062000452565b8683101562000499578489015162000495601f8916826200038f565b8355505b6001600288020188555050505b505050505050565b5f80fd5b5f73ffffffffffffffffffffffffffffffffffffffff82169050919050565b5f620004dd82620004b2565b9050919050565b620004ef81620004d1565b8114620004fa575f80fd5b50565b5f815190506200050d81620004e4565b92915050565b5f602082840312156200052b576200052a620004ae565b5b5f6200053a84828501620004fd565b91505092915050565b613fa980620005515f395ff3fe608060405234801561000f575f80fd5b50600436106101d8575f3560e01c806370a0823111610102578063c87b56dd116100a0578063e985e9c51161006f578063e985e9c5146105dc578063f66f49c31461060c578063f78eea831461063d578063fcd4a5461461066f576101d8565b8063c87b56dd1461052e578063ce5e11bf1461055e578063d602e3c61461058e578063e07c5486146105ac576101d8565b8063a22cb465116100dc578063a22cb46514610495578063a792765f146104b1578063b88d4fde146104e2578063c5958af9146104fe576101d8565b806370a082311461041757806377b03e0d1461044757806395d89b4114610477576101d8565b806328320abc1161017a57806342842e0e1161014957806342842e0e1461036a57806344e87f91146103865780636352211e146103b657806364ee3c6d146103e6576101d8565b806328320abc146102cc57806329449085146102eb5780632af8aae01461031c57806340d097c31461033a576101d8565b8063095ea7b3116101b6578063095ea7b31461025a578063193b505b146102765780631959ad5b1461029257806323b872dd146102b0576101d8565b806301ffc9a7146101dc57806306fdde031461020c578063081812fc1461022a575b5f80fd5b6101f660048036038101906101f19190612901565b6106a0565b6040516102039190612946565b60405180910390f35b610214610781565b60405161022191906129e9565b60405180910390f35b610244600480360381019061023f9190612a3c565b610810565b6040516102519190612aa6565b60405180910390f35b610274600480360381019061026f9190612ae9565b610852565b005b610290600480360381019061028b9190612b27565b610968565b005b61029a610a03565b6040516102a79190612bad565b60405180910390f35b6102ca60048036038101906102c59190612bc6565b610a28565b005b6102d4610a88565b6040516102e2929190612c25565b60405180910390f35b61030560048036038101906103009190612c7f565b610b9d565b604051610313929190612cbd565b60405180910390f35b610324610c44565b6040516103319190612d04565b60405180910390f35b610354600480360381019061034f9190612b27565b610c69565b6040516103619190612d1d565b60405180910390f35b610384600480360381019061037f9190612bc6565b610cf1565b005b6103a0600480360381019061039b9190612c7f565b610d10565b6040516103ad9190612946565b60405180910390f35b6103d060048036038101906103cb9190612a3c565b610db4565b6040516103dd9190612aa6565b60405180910390f35b61040060048036038101906103fb9190612c7f565b610e38565b60405161040e929190612d88565b60405180910390f35b610431600480360381019061042c9190612b27565b610e8e565b60405161043e9190612d1d565b60405180910390f35b610461600480360381019061045c9190612db6565b610f42565b60405161046e9190612d1d565b60405180910390f35b61047f610fe3565b60405161048c91906129e9565b60405180910390f35b6104af60048036038101906104aa9190612e0b565b611073565b005b6104cb60048036038101906104c69190612c7f565b611089565b6040516104d9929190612d88565b60405180910390f35b6104fc60048036038101906104f79190612f75565b61113c565b005b61051860048036038101906105139190612c7f565b61119e565b6040516105259190612ff5565b60405180910390f35b61054860048036038101906105439190612a3c565b611246565b60405161055591906129e9565b60405180910390f35b61057860048036038101906105739190612c7f565b61138c565b6040516105859190612d1d565b60405180910390f35b610596611430565b6040516105a39190612d1d565b60405180910390f35b6105c660048036038101906105c19190612c7f565b6114e3565b6040516105d39190612aa6565b60405180910390f35b6105f660048036038101906105f19190613015565b611587565b6040516106039190612946565b60405180910390f35b61062660048036038101906106219190612c7f565b611615565b604051610634929190612cbd565b60405180910390f35b61065760048036038101906106529190612db6565b6117ea565b6040516106669392919061306b565b60405180910390f35b610689600480360381019061068491906130a0565b6118e6565b6040516106979291906132be565b60405180910390f35b5f7f80ac58cd000000000000000000000000000000000000000000000000000000007bffffffffffffffffffffffffffffffffffffffffffffffffffffffff1916827bffffffffffffffffffffffffffffffffffffffffffffffffffffffff1916148061076a57507f5b5e139f000000000000000000000000000000000000000000000000000000007bffffffffffffffffffffffffffffffffffffffffffffffffffffffff1916827bffffffffffffffffffffffffffffffffffffffffffffffffffffffff1916145b8061077a575061077982611cae565b5b9050919050565b60605f805461078f90613320565b80601f01602080910402602001604051908101604052809291908181526020018280546107bb90613320565b80156108065780601f106107dd57610100808354040283529160200191610806565b820191905f5260205f20905b8154815290600101906020018083116107e957829003601f168201915b5050505050905090565b5f61081a82611d17565b60045f8381526020019081526020015f205f9054906101000a900473ffffffffffffffffffffffffffffffffffffffff169050919050565b5f61085c82610db4565b90508073ffffffffffffffffffffffffffffffffffffffff168373ffffffffffffffffffffffffffffffffffffffff16036108cc576040517f08c379a00000000000000000000000000000000000000000000000000000000081526004016108c3906133c0565b60405180910390fd5b8073ffffffffffffffffffffffffffffffffffffffff166108eb611d62565b73ffffffffffffffffffffffffffffffffffffffff16148061091a575061091981610914611d62565b611587565b5b610959576040517f08c379a00000000000000000000000000000000000000000000000000000000081526004016109509061344e565b60405180910390fd5b6109638383611d69565b505050565b5f73ffffffffffffffffffffffffffffffffffffffff1660075f9054906101000a900473ffffffffffffffffffffffffffffffffffffffff1673ffffffffffffffffffffffffffffffffffffffff16146109c0575f80fd5b8060075f6101000a81548173ffffffffffffffffffffffffffffffffffffffff021916908373ffffffffffffffffffffffffffffffffffffffff16021790555050565b60065f9054906101000a900473ffffffffffffffffffffffffffffffffffffffff1681565b610a39610a33611d62565b82611e1f565b610a78576040517f08c379a0000000000000000000000000000000000000000000000000000000008152600401610a6f906134dc565b60405180910390fd5b610a83838383611eb3565b505050565b5f805f604051602001610a9a9061358e565b604051602081830303815290604052604051602001610ab99190613609565b60405160208183030381529060405290505f818051906020012090505f80610aef836201518042610aea9190613669565b611089565b915091505f80610b0c856104b042610b079190613669565b611089565b915091505f81148015610b1e57505f83145b15610b34575f8097509750505050505050610b99565b6202a3008342610b449190613669565b10610b4d575f80fd5b620151808142610b5d9190613669565b10610b66575f80fd5b83806020019051810190610b7a91906136b0565b82806020019051810190610b8e91906136b0565b975097505050505050505b9091565b5f8060065f9054906101000a900473ffffffffffffffffffffffffffffffffffffffff1673ffffffffffffffffffffffffffffffffffffffff16632944908585856040518363ffffffff1660e01b8152600401610bfb9291906136ea565b6040805180830381865afa158015610c15573d5f803e3d5ffd5b505050506040513d601f19601f82011682018060405250810190610c399190613725565b915091509250929050565b60075f9054906101000a900473ffffffffffffffffffffffffffffffffffffffff1681565b5f610c7d82610c78600861219f565b6121ab565b610c8760086121c8565b7f6bd5c950a8d8df17f772f5af37cb3655737899cbf903264b9795592da439661c5f7fffffffffffffffffffffffffffffffffffffffffffffffffffffffffffffffff604051610cd892919061379c565b60405180910390a1610cea600861219f565b9050919050565b610d0b83838360405180602001604052805f81525061113c565b505050565b5f60065f9054906101000a900473ffffffffffffffffffffffffffffffffffffffff1673ffffffffffffffffffffffffffffffffffffffff166344e87f9184846040518363ffffffff1660e01b8152600401610d6d9291906136ea565b602060405180830381865afa158015610d88573d5f803e3d5ffd5b505050506040513d601f19601f82011682018060405250810190610dac91906137c3565b905092915050565b5f80610dbf836121dc565b90505f73ffffffffffffffffffffffffffffffffffffffff168173ffffffffffffffffffffffffffffffffffffffff1603610e2f576040517f08c379a0000000000000000000000000000000000000000000000000000000008152600401610e2690613838565b60405180910390fd5b80915050919050565b60605f805f610e478686611615565b9150915081610e6c575f60405180602001604052805f81525090935093505050610e87565b610e76868261138c565b9250610e82868461119e565b935050505b9250929050565b5f8073ffffffffffffffffffffffffffffffffffffffff168273ffffffffffffffffffffffffffffffffffffffff1603610efd576040517f08c379a0000000000000000000000000000000000000000000000000000000008152600401610ef4906138c6565b60405180910390fd5b60035f8373ffffffffffffffffffffffffffffffffffffffff1673ffffffffffffffffffffffffffffffffffffffff1681526020019081526020015f20549050919050565b5f60065f9054906101000a900473ffffffffffffffffffffffffffffffffffffffff1673ffffffffffffffffffffffffffffffffffffffff166377b03e0d836040518263ffffffff1660e01b8152600401610f9d91906138e4565b602060405180830381865afa158015610fb8573d5f803e3d5ffd5b505050506040513d601f19601f82011682018060405250810190610fdc91906136b0565b9050919050565b606060018054610ff290613320565b80601f016020809104026020016040519081016040528092919081815260200182805461101e90613320565b80156110695780601f1061104057610100808354040283529160200191611069565b820191905f5260205f20905b81548152906001019060200180831161104c57829003601f168201915b5050505050905090565b61108561107e611d62565b8383612215565b5050565b60605f60065f9054906101000a900473ffffffffffffffffffffffffffffffffffffffff1673ffffffffffffffffffffffffffffffffffffffff1663a792765f85856040518363ffffffff1660e01b81526004016110e89291906136ea565b5f60405180830381865afa158015611102573d5f803e3d5ffd5b505050506040513d5f823e3d601f19601f8201168201806040525081019061112a919061396b565b90915080925081935050509250929050565b61114d611147611d62565b83611e1f565b61118c576040517f08c379a0000000000000000000000000000000000000000000000000000000008152600401611183906134dc565b60405180910390fd5b6111988484848461237c565b50505050565b606060065f9054906101000a900473ffffffffffffffffffffffffffffffffffffffff1673ffffffffffffffffffffffffffffffffffffffff1663c5958af984846040518363ffffffff1660e01b81526004016111fc9291906136ea565b5f60405180830381865afa158015611216573d5f803e3d5ffd5b505050506040513d5f823e3d601f19601f8201168201806040525081019061123e91906139d7565b905092915050565b606061125182611d17565b5f8061125b610a88565b91509150818111156112f9576009805461127490613320565b80601f01602080910402602001604051908101604052809291908181526020018280546112a090613320565b80156112eb5780601f106112c2576101008083540402835291602001916112eb565b820191905f5260205f20905b8154815290600101906020018083116112ce57829003601f168201915b505050505092505050611387565b600a805461130690613320565b80601f016020809104026020016040519081016040528092919081815260200182805461133290613320565b801561137d5780601f106113545761010080835404028352916020019161137d565b820191905f5260205f20905b81548152906001019060200180831161136057829003601f168201915b5050505050925050505b919050565b5f60065f9054906101000a900473ffffffffffffffffffffffffffffffffffffffff1673ffffffffffffffffffffffffffffffffffffffff1663ce5e11bf84846040518363ffffffff1660e01b81526004016113e99291906136ea565b602060405180830381865afa158015611404573d5f803e3d5ffd5b505050506040513d601f19601f8201168201806040525081019061142891906136b0565b905092915050565b5f806040516020016114419061358e565b6040516020818303038152906040526040516020016114609190613609565b60405160208183030381529060405290505f818051906020012090505f80611495836104b0426114909190613669565b611089565b915091505f81036114ac575f9450505050506114e0565b6201518081426114bc9190613669565b106114c5575f80fd5b818060200190518101906114d991906136b0565b9450505050505b90565b5f60065f9054906101000a900473ffffffffffffffffffffffffffffffffffffffff1673ffffffffffffffffffffffffffffffffffffffff1663e07c548684846040518363ffffffff1660e01b81526004016115409291906136ea565b602060405180830381865afa15801561155b573d5f803e3d5ffd5b505050506040513d601f19601f8201168201806040525081019061157f9190613a32565b905092915050565b5f60055f8473ffffffffffffffffffffffffffffffffffffffff1673ffffffffffffffffffffffffffffffffffffffff1681526020019081526020015f205f8373ffffffffffffffffffffffffffffffffffffffff1673ffffffffffffffffffffffffffffffffffffffff1681526020019081526020015f205f9054906101000a900460ff16905092915050565b5f805f61162185610f42565b90505f8103611636575f8092509250506117e3565b808061164190613a5d565b9150505f600190505f805f8490505f61165a8a8361138c565b9050888111611674575f80975097505050505050506117e3565b61167e8a8461138c565b90508881111561168c575f94505b5b841561175057600283836116a19190613a84565b6116ab9190613ae4565b93506116b78a8561138c565b9050888111156116ff575f6116d88b6001876116d39190613669565b61138c565b90508981116116e9575f95506116f9565b6001856116f69190613669565b92505b5061174b565b5f6117168b6001876117119190613a84565b61138c565b905089811115611739575f9550848061172e90613b14565b955050809150611749565b6001856117469190613a84565b93505b505b61168d565b61175a8a82610d10565b61177057600184975097505050505050506117e3565b5b61177b8a82610d10565b801561178657508584105b156117aa57838061179690613b14565b9450506117a38a8561138c565b9050611771565b85841480156117bf57506117be8a82610d10565b5b156117d5575f80975097505050505050506117e3565b600184975097505050505050505b9250929050565b5f805f8060075f9054906101000a900473ffffffffffffffffffffffffffffffffffffffff1673ffffffffffffffffffffffffffffffffffffffff166387a475fd866040518263ffffffff1660e01b815260040161184891906138e4565b602060405180830381865afa158015611863573d5f803e3d5ffd5b505050506040513d601f19601f820116820180604052508101906118879190613b6f565b905060606118a18260014261189c9190613a84565b611089565b80955081925050505f84036118c2575f8061019494509450945050506118df565b5f6118cc826123d8565b9050809550858560c89550955095505050505b9193909250565b6060805f806119008887896118fb9190613669565b611615565b91509150816119ab575f67ffffffffffffffff81111561192357611922612e51565b5b60405190808252806020026020018201604052801561195657816020015b60608152602001906001900390816119415790505b505f67ffffffffffffffff81111561197157611970612e51565b5b60405190808252806020026020018201604052801561199f5781602001602082028036833780820191505090505b50935093505050611ca5565b5f6119b68989610b9d565b809250819450505082611a66575f67ffffffffffffffff8111156119dd576119dc612e51565b5b604051908082528060200260200182016040528015611a1057816020015b60608152602001906001900390816119fb5790505b505f67ffffffffffffffff811115611a2b57611a2a612e51565b5b604051908082528060200260200182016040528015611a595781602001602082028036833780820191505090505b5094509450505050611ca5565b5f805f8867ffffffffffffffff811115611a8357611a82612e51565b5b604051908082528060200260200182016040528015611ab15781602001602082028036833780820191505090505b5090505b8883108015611ada57508482600186611ace9190613a84565b611ad89190613669565b115b15611b48575f611af58d8487611af09190613669565b61138c565b9050611b018d82610d10565b611b345780828581518110611b1957611b18613b9a565b5b6020026020010181815250508380611b3090613b14565b9450505b8280611b3f90613b14565b93505050611ab5565b5f8367ffffffffffffffff811115611b6357611b62612e51565b5b604051908082528060200260200182016040528015611b9657816020015b6060815260200190600190039081611b815790505b5090505f8467ffffffffffffffff811115611bb457611bb3612e51565b5b604051908082528060200260200182016040528015611be25781602001602082028036833780820191505090505b5090505f5b85811015611c95578381600188611bfe9190613669565b611c089190613669565b81518110611c1957611c18613b9a565b5b6020026020010151828281518110611c3457611c33613b9a565b5b602002602001018181525050611c648f838381518110611c5757611c56613b9a565b5b602002602001015161119e565b838281518110611c7757611c76613b9a565b5b60200260200101819052508080611c8d90613b14565b915050611be7565b5081819950995050505050505050505b94509492505050565b5f7f01ffc9a7000000000000000000000000000000000000000000000000000000007bffffffffffffffffffffffffffffffffffffffffffffffffffffffff1916827bffffffffffffffffffffffffffffffffffffffffffffffffffffffff1916149050919050565b611d208161243e565b611d5f576040517f08c379a0000000000000000000000000000000000000000000000000000000008152600401611d5690613838565b60405180910390fd5b50565b5f33905090565b8160045f8381526020019081526020015f205f6101000a81548173ffffffffffffffffffffffffffffffffffffffff021916908373ffffffffffffffffffffffffffffffffffffffff160217905550808273ffffffffffffffffffffffffffffffffffffffff16611dd983610db4565b73ffffffffffffffffffffffffffffffffffffffff167f8c5be1e5ebec7d5bd14f71427d1e84f3dd0314c0f7b2291e5b200ac8c7c3b92560405160405180910390a45050565b5f80611e2a83610db4565b90508073ffffffffffffffffffffffffffffffffffffffff168473ffffffffffffffffffffffffffffffffffffffff161480611e6c5750611e6b8185611587565b5b80611eaa57508373ffffffffffffffffffffffffffffffffffffffff16611e9284610810565b73ffffffffffffffffffffffffffffffffffffffff16145b91505092915050565b8273ffffffffffffffffffffffffffffffffffffffff16611ed382610db4565b73ffffffffffffffffffffffffffffffffffffffff1614611f29576040517f08c379a0000000000000000000000000000000000000000000000000000000008152600401611f2090613c37565b60405180910390fd5b5f73ffffffffffffffffffffffffffffffffffffffff168273ffffffffffffffffffffffffffffffffffffffff1603611f97576040517f08c379a0000000000000000000000000000000000000000000000000000000008152600401611f8e90613cc5565b60405180910390fd5b611fa4838383600161247e565b8273ffffffffffffffffffffffffffffffffffffffff16611fc482610db4565b73ffffffffffffffffffffffffffffffffffffffff161461201a576040517f08c379a000000000000000000000000000000000000000000000000000000000815260040161201190613c37565b60405180910390fd5b60045f8281526020019081526020015f205f6101000a81549073ffffffffffffffffffffffffffffffffffffffff0219169055600160035f8573ffffffffffffffffffffffffffffffffffffffff1673ffffffffffffffffffffffffffffffffffffffff1681526020019081526020015f205f8282540392505081905550600160035f8473ffffffffffffffffffffffffffffffffffffffff1673ffffffffffffffffffffffffffffffffffffffff1681526020019081526020015f205f82825401925050819055508160025f8381526020019081526020015f205f6101000a81548173ffffffffffffffffffffffffffffffffffffffff021916908373ffffffffffffffffffffffffffffffffffffffff160217905550808273ffffffffffffffffffffffffffffffffffffffff168473ffffffffffffffffffffffffffffffffffffffff167fddf252ad1be2c89b69c2b068fc378daa952ba7f163c4a11628f55a4df523b3ef60405160405180910390a461219a8383836001612484565b505050565b5f815f01549050919050565b6121c4828260405180602001604052805f81525061248a565b5050565b6001815f015f828254019250508190555050565b5f60025f8381526020019081526020015f205f9054906101000a900473ffffffffffffffffffffffffffffffffffffffff169050919050565b8173ffffffffffffffffffffffffffffffffffffffff168373ffffffffffffffffffffffffffffffffffffffff1603612283576040517f08c379a000000000000000000000000000000000000000000000000000000000815260040161227a90613d2d565b60405180910390fd5b8060055f8573ffffffffffffffffffffffffffffffffffffffff1673ffffffffffffffffffffffffffffffffffffffff1681526020019081526020015f205f8473ffffffffffffffffffffffffffffffffffffffff1673ffffffffffffffffffffffffffffffffffffffff1681526020019081526020015f205f6101000a81548160ff0219169083151502179055508173ffffffffffffffffffffffffffffffffffffffff168373ffffffffffffffffffffffffffffffffffffffff167f17307eab39ab6107e8899845ad3d59bd9653f200f220920489ca2b5937696c318360405161236f9190612946565b60405180910390a3505050565b612387848484611eb3565b612393848484846124e4565b6123d2576040517f08c379a00000000000000000000000000000000000000000000000000000000081526004016123c990613dbb565b60405180910390fd5b50505050565b5f805f90505b8251811015612438578281815181106123fa576123f9613b9a565b5b602001015160f81c60f81b60f81c60ff16610100836124199190613dd9565b6124239190613a84565b9150808061243090613b14565b9150506123de565b50919050565b5f8073ffffffffffffffffffffffffffffffffffffffff1661245f836121dc565b73ffffffffffffffffffffffffffffffffffffffff1614159050919050565b50505050565b50505050565b6124948383612666565b6124a05f8484846124e4565b6124df576040517f08c379a00000000000000000000000000000000000000000000000000000000081526004016124d690613dbb565b60405180910390fd5b505050565b5f6125048473ffffffffffffffffffffffffffffffffffffffff16612879565b15612659578373ffffffffffffffffffffffffffffffffffffffff1663150b7a0261252d611d62565b8786866040518563ffffffff1660e01b815260040161254f9493929190613e1a565b6020604051808303815f875af192505050801561258a57506040513d601f19601f820116820180604052508101906125879190613e78565b60015b612609573d805f81146125b8576040519150601f19603f3d011682016040523d82523d5f602084013e6125bd565b606091505b505f815103612601576040517f08c379a00000000000000000000000000000000000000000000000000000000081526004016125f890613dbb565b60405180910390fd5b805181602001fd5b63150b7a0260e01b7bffffffffffffffffffffffffffffffffffffffffffffffffffffffff1916817bffffffffffffffffffffffffffffffffffffffffffffffffffffffff19161491505061265e565b600190505b949350505050565b5f73ffffffffffffffffffffffffffffffffffffffff168273ffffffffffffffffffffffffffffffffffffffff16036126d4576040517f08c379a00000000000000000000000000000000000000000000000000000000081526004016126cb90613eed565b60405180910390fd5b6126dd8161243e565b1561271d576040517f08c379a000000000000000000000000000000000000000000000000000000000815260040161271490613f55565b60405180910390fd5b61272a5f8383600161247e565b6127338161243e565b15612773576040517f08c379a000000000000000000000000000000000000000000000000000000000815260040161276a90613f55565b60405180910390fd5b600160035f8473ffffffffffffffffffffffffffffffffffffffff1673ffffffffffffffffffffffffffffffffffffffff1681526020019081526020015f205f82825401925050819055508160025f8381526020019081526020015f205f6101000a81548173ffffffffffffffffffffffffffffffffffffffff021916908373ffffffffffffffffffffffffffffffffffffffff160217905550808273ffffffffffffffffffffffffffffffffffffffff165f73ffffffffffffffffffffffffffffffffffffffff167fddf252ad1be2c89b69c2b068fc378daa952ba7f163c4a11628f55a4df523b3ef60405160405180910390a46128755f83836001612484565b5050565b5f808273ffffffffffffffffffffffffffffffffffffffff163b119050919050565b5f604051905090565b5f80fd5b5f80fd5b5f7fffffffff0000000000000000000000000000000000000000000000000000000082169050919050565b6128e0816128ac565b81146128ea575f80fd5b50565b5f813590506128fb816128d7565b92915050565b5f60208284031215612916576129156128a4565b5b5f612923848285016128ed565b91505092915050565b5f8115159050919050565b6129408161292c565b82525050565b5f6020820190506129595f830184612937565b92915050565b5f81519050919050565b5f82825260208201905092915050565b5f5b8381101561299657808201518184015260208101905061297b565b5f8484015250505050565b5f601f19601f8301169050919050565b5f6129bb8261295f565b6129c58185612969565b93506129d5818560208601612979565b6129de816129a1565b840191505092915050565b5f6020820190508181035f830152612a0181846129b1565b905092915050565b5f819050919050565b612a1b81612a09565b8114612a25575f80fd5b50565b5f81359050612a3681612a12565b92915050565b5f60208284031215612a5157612a506128a4565b5b5f612a5e84828501612a28565b91505092915050565b5f73ffffffffffffffffffffffffffffffffffffffff82169050919050565b5f612a9082612a67565b9050919050565b612aa081612a86565b82525050565b5f602082019050612ab95f830184612a97565b92915050565b612ac881612a86565b8114612ad2575f80fd5b50565b5f81359050612ae381612abf565b92915050565b5f8060408385031215612aff57612afe6128a4565b5b5f612b0c85828601612ad5565b9250506020612b1d85828601612a28565b9150509250929050565b5f60208284031215612b3c57612b3b6128a4565b5b5f612b4984828501612ad5565b91505092915050565b5f819050919050565b5f612b75612b70612b6b84612a67565b612b52565b612a67565b9050919050565b5f612b8682612b5b565b9050919050565b5f612b9782612b7c565b9050919050565b612ba781612b8d565b82525050565b5f602082019050612bc05f830184612b9e565b92915050565b5f805f60608486031215612bdd57612bdc6128a4565b5b5f612bea86828701612ad5565b9350506020612bfb86828701612ad5565b9250506040612c0c86828701612a28565b9150509250925092565b612c1f81612a09565b82525050565b5f604082019050612c385f830185612c16565b612c456020830184612c16565b9392505050565b5f819050919050565b612c5e81612c4c565b8114612c68575f80fd5b50565b5f81359050612c7981612c55565b92915050565b5f8060408385031215612c9557612c946128a4565b5b5f612ca285828601612c6b565b9250506020612cb385828601612a28565b9150509250929050565b5f604082019050612cd05f830185612937565b612cdd6020830184612c16565b9392505050565b5f612cee82612b7c565b9050919050565b612cfe81612ce4565b82525050565b5f602082019050612d175f830184612cf5565b92915050565b5f602082019050612d305f830184612c16565b92915050565b5f81519050919050565b5f82825260208201905092915050565b5f612d5a82612d36565b612d648185612d40565b9350612d74818560208601612979565b612d7d816129a1565b840191505092915050565b5f6040820190508181035f830152612da08185612d50565b9050612daf6020830184612c16565b9392505050565b5f60208284031215612dcb57612dca6128a4565b5b5f612dd884828501612c6b565b91505092915050565b612dea8161292c565b8114612df4575f80fd5b50565b5f81359050612e0581612de1565b92915050565b5f8060408385031215612e2157612e206128a4565b5b5f612e2e85828601612ad5565b9250506020612e3f85828601612df7565b9150509250929050565b5f80fd5b5f80fd5b7f4e487b71000000000000000000000000000000000000000000000000000000005f52604160045260245ffd5b612e87826129a1565b810181811067ffffffffffffffff82111715612ea657612ea5612e51565b5b80604052505050565b5f612eb861289b565b9050612ec48282612e7e565b919050565b5f67ffffffffffffffff821115612ee357612ee2612e51565b5b612eec826129a1565b9050602081019050919050565b828183375f83830152505050565b5f612f19612f1484612ec9565b612eaf565b905082815260208101848484011115612f3557612f34612e4d565b5b612f40848285612ef9565b509392505050565b5f82601f830112612f5c57612f5b612e49565b5b8135612f6c848260208601612f07565b91505092915050565b5f805f8060808587031215612f8d57612f8c6128a4565b5b5f612f9a87828801612ad5565b9450506020612fab87828801612ad5565b9350506040612fbc87828801612a28565b925050606085013567ffffffffffffffff811115612fdd57612fdc6128a8565b5b612fe987828801612f48565b91505092959194509250565b5f6020820190508181035f83015261300d8184612d50565b905092915050565b5f806040838503121561302b5761302a6128a4565b5b5f61303885828601612ad5565b925050602061304985828601612ad5565b9150509250929050565b5f819050919050565b61306581613053565b82525050565b5f60608201905061307e5f83018661305c565b61308b6020830185612c16565b6130986040830184612c16565b949350505050565b5f805f80608085870312156130b8576130b76128a4565b5b5f6130c587828801612c6b565b94505060206130d687828801612a28565b93505060406130e787828801612a28565b92505060606130f887828801612a28565b91505092959194509250565b5f81519050919050565b5f82825260208201905092915050565b5f819050602082019050919050565b5f82825260208201905092915050565b5f61314782612d36565b613151818561312d565b9350613161818560208601612979565b61316a816129a1565b840191505092915050565b5f613180838361313d565b905092915050565b5f602082019050919050565b5f61319e82613104565b6131a8818561310e565b9350836020820285016131ba8561311e565b805f5b858110156131f557848403895281516131d68582613175565b94506131e183613188565b925060208a019950506001810190506131bd565b50829750879550505050505092915050565b5f81519050919050565b5f82825260208201905092915050565b5f819050602082019050919050565b61323981612a09565b82525050565b5f61324a8383613230565b60208301905092915050565b5f602082019050919050565b5f61326c82613207565b6132768185613211565b935061328183613221565b805f5b838110156132b1578151613298888261323f565b97506132a383613256565b925050600181019050613284565b5085935050505092915050565b5f6040820190508181035f8301526132d68185613194565b905081810360208301526132ea8184613262565b90509392505050565b7f4e487b71000000000000000000000000000000000000000000000000000000005f52602260045260245ffd5b5f600282049050600182168061333757607f821691505b60208210810361334a576133496132f3565b5b50919050565b7f4552433732313a20617070726f76616c20746f2063757272656e74206f776e655f8201527f7200000000000000000000000000000000000000000000000000000000000000602082015250565b5f6133aa602183612969565b91506133b582613350565b604082019050919050565b5f6020820190508181035f8301526133d78161339e565b9050919050565b7f4552433732313a20617070726f76652063616c6c6572206973206e6f7420746f5f8201527f6b656e206f776e6572206f7220617070726f76656420666f7220616c6c000000602082015250565b5f613438603d83612969565b9150613443826133de565b604082019050919050565b5f6020820190508181035f8301526134658161342c565b9050919050565b7f4552433732313a2063616c6c6572206973206e6f7420746f6b656e206f776e655f8201527f72206f7220617070726f76656400000000000000000000000000000000000000602082015250565b5f6134c6602d83612969565b91506134d18261346c565b604082019050919050565b5f6020820190508181035f8301526134f3816134ba565b9050919050565b7f65746800000000000000000000000000000000000000000000000000000000005f82015250565b5f61352e600383612969565b9150613539826134fa565b602082019050919050565b7f75736400000000000000000000000000000000000000000000000000000000005f82015250565b5f613578600383612969565b915061358382613544565b602082019050919050565b5f6040820190508181035f8301526135a581613522565b905081810360208301526135b88161356c565b9050919050565b7f53706f74507269636500000000000000000000000000000000000000000000005f82015250565b5f6135f3600983612969565b91506135fe826135bf565b602082019050919050565b5f6040820190508181035f830152613620816135e7565b905081810360208301526136348184612d50565b905092915050565b7f4e487b71000000000000000000000000000000000000000000000000000000005f52601160045260245ffd5b5f61367382612a09565b915061367e83612a09565b92508282039050818111156136965761369561363c565b5b92915050565b5f815190506136aa81612a12565b92915050565b5f602082840312156136c5576136c46128a4565b5b5f6136d28482850161369c565b91505092915050565b6136e481612c4c565b82525050565b5f6040820190506136fd5f8301856136db565b61370a6020830184612c16565b9392505050565b5f8151905061371f81612de1565b92915050565b5f806040838503121561373b5761373a6128a4565b5b5f61374885828601613711565b92505060206137598582860161369c565b9150509250929050565b5f819050919050565b5f61378661378161377c84613763565b612b52565b612a09565b9050919050565b6137968161376c565b82525050565b5f6040820190506137af5f83018561378d565b6137bc6020830184612c16565b9392505050565b5f602082840312156137d8576137d76128a4565b5b5f6137e584828501613711565b91505092915050565b7f4552433732313a20696e76616c696420746f6b656e20494400000000000000005f82015250565b5f613822601883612969565b915061382d826137ee565b602082019050919050565b5f6020820190508181035f83015261384f81613816565b9050919050565b7f4552433732313a2061646472657373207a65726f206973206e6f7420612076615f8201527f6c6964206f776e65720000000000000000000000000000000000000000000000602082015250565b5f6138b0602983612969565b91506138bb82613856565b604082019050919050565b5f6020820190508181035f8301526138dd816138a4565b9050919050565b5f6020820190506138f75f8301846136db565b92915050565b5f61390f61390a84612ec9565b612eaf565b90508281526020810184848401111561392b5761392a612e4d565b5b613936848285612979565b509392505050565b5f82601f83011261395257613951612e49565b5b81516139628482602086016138fd565b91505092915050565b5f805f60608486031215613982576139816128a4565b5b5f61398f86828701613711565b935050602084015167ffffffffffffffff8111156139b0576139af6128a8565b5b6139bc8682870161393e565b92505060406139cd8682870161369c565b9150509250925092565b5f602082840312156139ec576139eb6128a4565b5b5f82015167ffffffffffffffff811115613a0957613a086128a8565b5b613a158482850161393e565b91505092915050565b5f81519050613a2c81612abf565b92915050565b5f60208284031215613a4757613a466128a4565b5b5f613a5484828501613a1e565b91505092915050565b5f613a6782612a09565b91505f8203613a7957613a7861363c565b5b600182039050919050565b5f613a8e82612a09565b9150613a9983612a09565b9250828201905080821115613ab157613ab061363c565b5b92915050565b7f4e487b71000000000000000000000000000000000000000000000000000000005f52601260045260245ffd5b5f613aee82612a09565b9150613af983612a09565b925082613b0957613b08613ab7565b5b828204905092915050565b5f613b1e82612a09565b91507fffffffffffffffffffffffffffffffffffffffffffffffffffffffffffffffff8203613b5057613b4f61363c565b5b600182019050919050565b5f81519050613b6981612c55565b92915050565b5f60208284031215613b8457613b836128a4565b5b5f613b9184828501613b5b565b91505092915050565b7f4e487b71000000000000000000000000000000000000000000000000000000005f52603260045260245ffd5b7f4552433732313a207472616e736665722066726f6d20696e636f7272656374205f8201527f6f776e6572000000000000000000000000000000000000000000000000000000602082015250565b5f613c21602583612969565b9150613c2c82613bc7565b604082019050919050565b5f6020820190508181035f830152613c4e81613c15565b9050919050565b7f4552433732313a207472616e7366657220746f20746865207a65726f206164645f8201527f7265737300000000000000000000000000000000000000000000000000000000602082015250565b5f613caf602483612969565b9150613cba82613c55565b604082019050919050565b5f6020820190508181035f830152613cdc81613ca3565b9050919050565b7f4552433732313a20617070726f766520746f2063616c6c6572000000000000005f82015250565b5f613d17601983612969565b9150613d2282613ce3565b602082019050919050565b5f6020820190508181035f830152613d4481613d0b565b9050919050565b7f4552433732313a207472616e7366657220746f206e6f6e2045524337323152655f8201527f63656976657220696d706c656d656e7465720000000000000000000000000000602082015250565b5f613da5603283612969565b9150613db082613d4b565b604082019050919050565b5f6020820190508181035f830152613dd281613d99565b9050919050565b5f613de382612a09565b9150613dee83612a09565b9250828202613dfc81612a09565b91508282048414831517613e1357613e1261363c565b5b5092915050565b5f608082019050613e2d5f830187612a97565b613e3a6020830186612a97565b613e476040830185612c16565b8181036060830152613e598184612d50565b905095945050505050565b5f81519050613e72816128d7565b92915050565b5f60208284031215613e8d57613e8c6128a4565b5b5f613e9a84828501613e64565b91505092915050565b7f4552433732313a206d696e7420746f20746865207a65726f20616464726573735f82015250565b5f613ed7602083612969565b9150613ee282613ea3565b602082019050919050565b5f6020820190508181035f830152613f0481613ecb565b9050919050565b7f4552433732313a20746f6b656e20616c7265616479206d696e746564000000005f82015250565b5f613f3f601c83612969565b9150613f4a82613f0b565b602082019050919050565b5f6020820190508181035f830152613f6c81613f33565b905091905056fea2646970667358221220d262d2c96beb1146b2bf51dbdb6c14c0a29ed43a5bc8f8b1779b3881fdd8403564736f6c63430008150033697066733a2f2f516d5a796e7a6348714e415065556b364656787977386f66443656586e707659435866796e3432414477465866772f62756c6c2e6a736f6e697066733a2f2f516d5a796e7a6348714e415065556b364656787977386f66443656586e707659435866796e3432414477465866772f626561722e6a736f6e",
  "linkReferences": {},
  "deployedLinkReferences": {}
}