{"contracts/Gas.sol":{"Gas":{"abi":[{"inputs":[],"name":"createPacked","outputs":[],"stateMutability":"nonpayable","type":"function"},{"inputs":[],"name":"createUnpacked","outputs":[],"stateMutability":"nonpayable","type":"function"},{"inputs":[],"name":"highScore","outputs":[{"internalType":"uint256","name":"","type":"uint256"}],"stateMutability":"view","type":"function"},{"inputs":[{"internalType":"uint256","name":"actions","type":"uint256"}],"name":"loopActions","outputs":[],"stateMutability":"nonpayable","type":"function"},{"inputs":[{"internalType":"uint256","name":"countValue","type":"uint256"}],"name":"updateNumber","outputs":[],"stateMutability":"nonpayable","type":"function"},{"inputs":[{"internalType":"uint256","name":"countValue","type":"uint256"}],"name":"updateNumberOptimized","outputs":[],"stateMutability":"nonpayable","type":"function"}],"evm":{"bytecode":{"linkReferences":{},"object":"608060405234801561001057600080fd5b50610669806100206000396000f3fe608060405234801561001057600080fd5b50600436106100625760003560e01c80631db05a88146100675780631fca52781461007c5780634c6c2ff3146100975780636da4ddb1146100aa578063d1f108b91461030b578063fc63cdcc1461031e575b600080fd5b61007a610075366004610599565b6104e8565b005b61008560005481565b60405190815260200160405180910390f35b61007a6100a5366004610599565b61051e565b61007a600460405180610160016040528060006001600160801b03168152602001600060ff16815260200160006001600160401b03168152602001600060ff1681526020016000815260200160006001600160401b0316815260200160006001600160801b03168152602001600060ff16815260200160006001600160401b03168152602001600060ff168152602001600063ffffffff16815250908060018154018082558091505060019003906000526020600020906004020160009091909190915060008201518160000160006101000a8154816001600160801b0302191690836001600160801b0316021790555060208201518160000160106101000a81548160ff021916908360ff16021790555060408201518160000160116101000a8154816001600160401b0302191690836001600160401b0316021790555060608201518160000160196101000a81548160ff021916908360ff1602179055506080820151816001015560a08201518160020160006101000a8154816001600160401b0302191690836001600160401b0316021790555060c08201518160020160086101000a8154816001600160801b0302191690836001600160801b0316021790555060e08201518160020160186101000a81548160ff021916908360ff1602179055506101008201518160030160006101000a8154816001600160401b0302191690836001600160401b031602179055506101208201518160030160086101000a81548160ff021916908360ff1602179055506101408201518160030160096101000a81548163ffffffff021916908363ffffffff1602179055505050565b61007a610319366004610599565b610550565b6040805161016081018252600080825260208201818152928201818152606083018281526080840183815260a0850184815260c0860185815260e08701868152610100880187815261012089018881526101408a01898152600380546001810182559a8190529a517fc2575a0e9e593c00f959f8c92f12db2869c3395a3b0502d05e2516446f71f85b9a909b02998a019a909a55995196516001600160801b03978816600160801b989091168802177fc2575a0e9e593c00f959f8c92f12db2869c3395a3b0502d05e2516446f71f85c89015594517fc2575a0e9e593c00f959f8c92f12db2869c3395a3b0502d05e2516446f71f85d909701805494519351925191519551995198516001600160401b039889166001600160801b031990961695909517600160401b9489169490940293909317600160801b600160e01b0319169690911690940263ffffffff60c01b191694909417600160c01b63ffffffff909416939093029290921761ffff60e01b1916600160e01b60ff9283160260ff60e81b191617600160e81b95821695909502949094176001600160f01b0316600160f01b938516939093026001600160f81b031692909217600160f81b9390921692909202179055005b60015481111561051b57806104fc816105c8565b600180549193509091506000610511836105df565b91905055506104e8565b50565b6002545b8082111561054a5781610534816105c8565b9250508080610542906105df565b915050610522565b60025550565b600181111561051b576000546105679060016105f8565b6105719082610611565b60008082825461058191906105f8565b90915550819050610591816105c8565b915050610550565b6000602082840312156105ab57600080fd5b5035919050565b634e487b7160e01b600052601160045260246000fd5b6000816105d7576105d76105b2565b506000190190565b6000600182016105f1576105f16105b2565b5060010190565b8082018082111561060b5761060b6105b2565b92915050565b60008261062e57634e487b7160e01b600052601260045260246000fd5b50049056fea2646970667358221220d50b7b9e70ebd01a74bc99c589f7383fd01e55b42fdc7737bbb375de6305604364736f6c63430008130033","opcodes":"PUSH1 0x80 PUSH1 0x40 MSTORE CALLVALUE DUP1 ISZERO PUSH2 0x10 JUMPI PUSH1 0x0 DUP1 REVERT JUMPDEST POP PUSH2 0x669 DUP1 PUSH2 0x20 PUSH1 0x0 CODECOPY PUSH1 0x0 RETURN INVALID PUSH1 0x80 PUSH1 0x40 MSTORE CALLVALUE DUP1 ISZERO PUSH2 0x10 JUMPI PUSH1 0x0 DUP1 REVERT JUMPDEST POP PUSH1 0x4 CALLDATASIZE LT PUSH2 0x62 JUMPI PUSH1 0x0 CALLDATALOAD PUSH1 0xE0 SHR DUP1 PUSH4 0x1DB05A88 EQ PUSH2 0x67 JUMPI DUP1 PUSH4 0x1FCA5278 EQ PUSH2 0x7C JUMPI DUP1 PUSH4 0x4C6C2FF3 EQ PUSH2 0x97 JUMPI DUP1 PUSH4 0x6DA4DDB1 EQ PUSH2 0xAA JUMPI DUP1 PUSH4 0xD1F108B9 EQ PUSH2 0x30B JUMPI DUP1 PUSH4 0xFC63CDCC EQ PUSH2 0x31E JUMPI JUMPDEST PUSH1 0x0 DUP1 REVERT JUMPDEST PUSH2 0x7A PUSH2 0x75 CALLDATASIZE PUSH1 0x4 PUSH2 0x599 JUMP JUMPDEST PUSH2 0x4E8 JUMP JUMPDEST STOP JUMPDEST PUSH2 0x85 PUSH1 0x0 SLOAD DUP2 JUMP JUMPDEST PUSH1 0x40 MLOAD SWAP1 DUP2 MSTORE PUSH1 0x20 ADD PUSH1 0x40 MLOAD DUP1 SWAP2 SUB SWAP1 RETURN JUMPDEST PUSH2 0x7A PUSH2 0xA5 CALLDATASIZE PUSH1 0x4 PUSH2 0x599 JUMP JUMPDEST PUSH2 0x51E JUMP JUMPDEST PUSH2 0x7A PUSH1 0x4 PUSH1 0x40 MLOAD DUP1 PUSH2 0x160 ADD PUSH1 0x40 MSTORE DUP1 PUSH1 0x0 PUSH1 0x1 PUSH1 0x1 PUSH1 0x80 SHL SUB AND DUP2 MSTORE PUSH1 0x20 ADD PUSH1 0x0 PUSH1 0xFF AND DUP2 MSTORE PUSH1 0x20 ADD PUSH1 0x0 PUSH1 0x1 PUSH1 0x1 PUSH1 0x40 SHL SUB AND DUP2 MSTORE PUSH1 0x20 ADD PUSH1 0x0 PUSH1 0xFF AND DUP2 MSTORE PUSH1 0x20 ADD PUSH1 0x0 DUP2 MSTORE PUSH1 0x20 ADD PUSH1 0x0 PUSH1 0x1 PUSH1 0x1 PUSH1 0x40 SHL SUB AND DUP2 MSTORE PUSH1 0x20 ADD PUSH1 0x0 PUSH1 0x1 PUSH1 0x1 PUSH1 0x80 SHL SUB AND DUP2 MSTORE PUSH1 0x20 ADD PUSH1 0x0 PUSH1 0xFF AND DUP2 MSTORE PUSH1 0x20 ADD PUSH1 0x0 PUSH1 0x1 PUSH1 0x1 PUSH1 0x40 SHL SUB AND DUP2 MSTORE PUSH1 0x20 ADD PUSH1 0x0 PUSH1 0xFF AND DUP2 MSTORE PUSH1 0x20 ADD PUSH1 0x0 PUSH4 0xFFFFFFFF AND DUP2 MSTORE POP SWAP1 DUP1 PUSH1 0x1 DUP2 SLOAD ADD DUP1 DUP3 SSTORE DUP1 SWAP2 POP POP PUSH1 0x1 SWAP1 SUB SWAP1 PUSH1 0x0 MSTORE PUSH1 0x20 PUSH1 0x0 KECCAK256 SWAP1 PUSH1 0x4 MUL ADD PUSH1 0x0 SWAP1 SWAP2 SWAP1 SWAP2 SWAP1 SWAP2 POP PUSH1 0x0 DUP3 ADD MLOAD DUP2 PUSH1 0x0 ADD PUSH1 0x0 PUSH2 0x100 EXP DUP2 SLOAD DUP2 PUSH1 0x1 PUSH1 0x1 PUSH1 0x80 SHL SUB MUL NOT AND SWAP1 DUP4 PUSH1 0x1 PUSH1 0x1 PUSH1 0x80 SHL SUB AND MUL OR SWAP1 SSTORE POP PUSH1 0x20 DUP3 ADD MLOAD DUP2 PUSH1 0x0 ADD PUSH1 0x10 PUSH2 0x100 EXP DUP2 SLOAD DUP2 PUSH1 0xFF MUL NOT AND SWAP1 DUP4 PUSH1 0xFF AND MUL OR SWAP1 SSTORE POP PUSH1 0x40 DUP3 ADD MLOAD DUP2 PUSH1 0x0 ADD PUSH1 0x11 PUSH2 0x100 EXP DUP2 SLOAD DUP2 PUSH1 0x1 PUSH1 0x1 PUSH1 0x40 SHL SUB MUL NOT AND SWAP1 DUP4 PUSH1 0x1 PUSH1 0x1 PUSH1 0x40 SHL SUB AND MUL OR SWAP1 SSTORE POP PUSH1 0x60 DUP3 ADD MLOAD DUP2 PUSH1 0x0 ADD PUSH1 0x19 PUSH2 0x100 EXP DUP2 SLOAD DUP2 PUSH1 0xFF MUL NOT AND SWAP1 DUP4 PUSH1 0xFF AND MUL OR SWAP1 SSTORE POP PUSH1 0x80 DUP3 ADD MLOAD DUP2 PUSH1 0x1 ADD SSTORE PUSH1 0xA0 DUP3 ADD MLOAD DUP2 PUSH1 0x2 ADD PUSH1 0x0 PUSH2 0x100 EXP DUP2 SLOAD DUP2 PUSH1 0x1 PUSH1 0x1 PUSH1 0x40 SHL SUB MUL NOT AND SWAP1 DUP4 PUSH1 0x1 PUSH1 0x1 PUSH1 0x40 SHL SUB AND MUL OR SWAP1 SSTORE POP PUSH1 0xC0 DUP3 ADD MLOAD DUP2 PUSH1 0x2 ADD PUSH1 0x8 PUSH2 0x100 EXP DUP2 SLOAD DUP2 PUSH1 0x1 PUSH1 0x1 PUSH1 0x80 SHL SUB MUL NOT AND SWAP1 DUP4 PUSH1 0x1 PUSH1 0x1 PUSH1 0x80 SHL SUB AND MUL OR SWAP1 SSTORE POP PUSH1 0xE0 DUP3 ADD MLOAD DUP2 PUSH1 0x2 ADD PUSH1 0x18 PUSH2 0x100 EXP DUP2 SLOAD DUP2 PUSH1 0xFF MUL NOT AND SWAP1 DUP4 PUSH1 0xFF AND MUL OR SWAP1 SSTORE POP PUSH2 0x100 DUP3 ADD MLOAD DUP2 PUSH1 0x3 ADD PUSH1 0x0 PUSH2 0x100 EXP DUP2 SLOAD DUP2 PUSH1 0x1 PUSH1 0x1 PUSH1 0x40 SHL SUB MUL NOT AND SWAP1 DUP4 PUSH1 0x1 PUSH1 0x1 PUSH1 0x40 SHL SUB AND MUL OR SWAP1 SSTORE POP PUSH2 0x120 DUP3 ADD MLOAD DUP2 PUSH1 0x3 ADD PUSH1 0x8 PUSH2 0x100 EXP DUP2 SLOAD DUP2 PUSH1 0xFF MUL NOT AND SWAP1 DUP4 PUSH1 0xFF AND MUL OR SWAP1 SSTORE POP PUSH2 0x140 DUP3 ADD MLOAD DUP2 PUSH1 0x3 ADD PUSH1 0x9 PUSH2 0x100 EXP DUP2 SLOAD DUP2 PUSH4 0xFFFFFFFF MUL NOT AND SWAP1 DUP4 PUSH4 0xFFFFFFFF AND MUL OR SWAP1 SSTORE POP POP POP JUMP JUMPDEST PUSH2 0x7A PUSH2 0x319 CALLDATASIZE PUSH1 0x4 PUSH2 0x599 JUMP JUMPDEST PUSH2 0x550 JUMP JUMPDEST PUSH1 0x40 DUP1 MLOAD PUSH2 0x160 DUP2 ADD DUP3 MSTORE PUSH1 0x0 DUP1 DUP3 MSTORE PUSH1 0x20 DUP3 ADD DUP2 DUP2 MSTORE SWAP3 DUP3 ADD DUP2 DUP2 MSTORE PUSH1 0x60 DUP4 ADD DUP3 DUP2 MSTORE PUSH1 0x80 DUP5 ADD DUP4 DUP2 MSTORE PUSH1 0xA0 DUP6 ADD DUP5 DUP2 MSTORE PUSH1 0xC0 DUP7 ADD DUP6 DUP2 MSTORE PUSH1 0xE0 DUP8 ADD DUP7 DUP2 MSTORE PUSH2 0x100 DUP9 ADD DUP8 DUP2 MSTORE PUSH2 0x120 DUP10 ADD DUP9 DUP2 MSTORE PUSH2 0x140 DUP11 ADD DUP10 DUP2 MSTORE PUSH1 0x3 DUP1 SLOAD PUSH1 0x1 DUP2 ADD DUP3 SSTORE SWAP11 DUP2 SWAP1 MSTORE SWAP11 MLOAD PUSH32 0xC2575A0E9E593C00F959F8C92F12DB2869C3395A3B0502D05E2516446F71F85B SWAP11 SWAP1 SWAP12 MUL SWAP10 DUP11 ADD SWAP11 SWAP1 SWAP11 SSTORE SWAP10 MLOAD SWAP7 MLOAD PUSH1 0x1 PUSH1 0x1 PUSH1 0x80 SHL SUB SWAP8 DUP9 AND PUSH1 0x1 PUSH1 0x80 SHL SWAP9 SWAP1 SWAP2 AND DUP9 MUL OR PUSH32 0xC2575A0E9E593C00F959F8C92F12DB2869C3395A3B0502D05E2516446F71F85C DUP10 ADD SSTORE SWAP5 MLOAD PUSH32 0xC2575A0E9E593C00F959F8C92F12DB2869C3395A3B0502D05E2516446F71F85D SWAP1 SWAP8 ADD DUP1 SLOAD SWAP5 MLOAD SWAP4 MLOAD SWAP3 MLOAD SWAP2 MLOAD SWAP6 MLOAD SWAP10 MLOAD SWAP9 MLOAD PUSH1 0x1 PUSH1 0x1 PUSH1 0x40 SHL SUB SWAP9 DUP10 AND PUSH1 0x1 PUSH1 0x1 PUSH1 0x80 SHL SUB NOT SWAP1 SWAP7 AND SWAP6 SWAP1 SWAP6 OR PUSH1 0x1 PUSH1 0x40 SHL SWAP5 DUP10 AND SWAP5 SWAP1 SWAP5 MUL SWAP4 SWAP1 SWAP4 OR PUSH1 0x1 PUSH1 0x80 SHL PUSH1 0x1 PUSH1 0xE0 SHL SUB NOT AND SWAP7 SWAP1 SWAP2 AND SWAP1 SWAP5 MUL PUSH4 0xFFFFFFFF PUSH1 0xC0 SHL NOT AND SWAP5 SWAP1 SWAP5 OR PUSH1 0x1 PUSH1 0xC0 SHL PUSH4 0xFFFFFFFF SWAP1 SWAP5 AND SWAP4 SWAP1 SWAP4 MUL SWAP3 SWAP1 SWAP3 OR PUSH2 0xFFFF PUSH1 0xE0 SHL NOT AND PUSH1 0x1 PUSH1 0xE0 SHL PUSH1 0xFF SWAP3 DUP4 AND MUL PUSH1 0xFF PUSH1 0xE8 SHL NOT AND OR PUSH1 0x1 PUSH1 0xE8 SHL SWAP6 DUP3 AND SWAP6 SWAP1 SWAP6 MUL SWAP5 SWAP1 SWAP5 OR PUSH1 0x1 PUSH1 0x1 PUSH1 0xF0 SHL SUB AND PUSH1 0x1 PUSH1 0xF0 SHL SWAP4 DUP6 AND SWAP4 SWAP1 SWAP4 MUL PUSH1 0x1 PUSH1 0x1 PUSH1 0xF8 SHL SUB AND SWAP3 SWAP1 SWAP3 OR PUSH1 0x1 PUSH1 0xF8 SHL SWAP4 SWAP1 SWAP3 AND SWAP3 SWAP1 SWAP3 MUL OR SWAP1 SSTORE STOP JUMPDEST PUSH1 0x1 SLOAD DUP2 GT ISZERO PUSH2 0x51B JUMPI DUP1 PUSH2 0x4FC DUP2 PUSH2 0x5C8 JUMP JUMPDEST PUSH1 0x1 DUP1 SLOAD SWAP2 SWAP4 POP SWAP1 SWAP2 POP PUSH1 0x0 PUSH2 0x511 DUP4 PUSH2 0x5DF JUMP JUMPDEST SWAP2 SWAP1 POP SSTORE POP PUSH2 0x4E8 JUMP JUMPDEST POP JUMP JUMPDEST PUSH1 0x2 SLOAD JUMPDEST DUP1 DUP3 GT ISZERO PUSH2 0x54A JUMPI DUP2 PUSH2 0x534 DUP2 PUSH2 0x5C8 JUMP JUMPDEST SWAP3 POP POP DUP1 DUP1 PUSH2 0x542 SWAP1 PUSH2 0x5DF JUMP JUMPDEST SWAP2 POP POP PUSH2 0x522 JUMP JUMPDEST PUSH1 0x2 SSTORE POP JUMP JUMPDEST PUSH1 0x1 DUP2 GT ISZERO PUSH2 0x51B JUMPI PUSH1 0x0 SLOAD PUSH2 0x567 SWAP1 PUSH1 0x1 PUSH2 0x5F8 JUMP JUMPDEST PUSH2 0x571 SWAP1 DUP3 PUSH2 0x611 JUMP JUMPDEST PUSH1 0x0 DUP1 DUP3 DUP3 SLOAD PUSH2 0x581 SWAP2 SWAP1 PUSH2 0x5F8 JUMP JUMPDEST SWAP1 SWAP2 SSTORE POP DUP2 SWAP1 POP PUSH2 0x591 DUP2 PUSH2 0x5C8 JUMP JUMPDEST SWAP2 POP POP PUSH2 0x550 JUMP JUMPDEST PUSH1 0x0 PUSH1 0x20 DUP3 DUP5 SUB SLT ISZERO PUSH2 0x5AB JUMPI PUSH1 0x0 DUP1 REVERT JUMPDEST POP CALLDATALOAD SWAP2 SWAP1 POP JUMP JUMPDEST PUSH4 0x4E487B71 PUSH1 0xE0 SHL PUSH1 0x0 MSTORE PUSH1 0x11 PUSH1 0x4 MSTORE PUSH1 0x24 PUSH1 0x0 REVERT JUMPDEST PUSH1 0x0 DUP2 PUSH2 0x5D7 JUMPI PUSH2 0x5D7 PUSH2 0x5B2 JUMP JUMPDEST POP PUSH1 0x0 NOT ADD SWAP1 JUMP JUMPDEST PUSH1 0x0 PUSH1 0x1 DUP3 ADD PUSH2 0x5F1 JUMPI PUSH2 0x5F1 PUSH2 0x5B2 JUMP JUMPDEST POP PUSH1 0x1 ADD SWAP1 JUMP JUMPDEST DUP1 DUP3 ADD DUP1 DUP3 GT ISZERO PUSH2 0x60B JUMPI PUSH2 0x60B PUSH2 0x5B2 JUMP JUMPDEST SWAP3 SWAP2 POP POP JUMP JUMPDEST PUSH1 0x0 DUP3 PUSH2 0x62E JUMPI PUSH4 0x4E487B71 PUSH1 0xE0 SHL PUSH1 0x0 MSTORE PUSH1 0x12 PUSH1 0x4 MSTORE PUSH1 0x24 PUSH1 0x0 REVERT JUMPDEST POP DIV SWAP1 JUMP INVALID LOG2 PUSH5 0x6970667358 0x22 SLT KECCAK256 0xD5 SIGNEXTEND PUSH28 0x9E70EBD01A74BC99C589F7383FD01E55B42FDC7737BBB375DE630560 NUMBER PUSH5 0x736F6C6343 STOP ADDMOD SGT STOP CALLER "},"methodIdentifiers":{"createPacked()":"fc63cdcc","createUnpacked()":"6da4ddb1","highScore()":"1fca5278","loopActions(uint256)":"d1f108b9","updateNumber(uint256)":"1db05a88","updateNumberOptimized(uint256)":"4c6c2ff3"}}}}}