{"contracts/Randao.sol":{"Random":{"abi":[{"inputs":[],"name":"getRandomNumber","outputs":[{"internalType":"uint256","name":"randomNumber","type":"uint256"}],"stateMutability":"view","type":"function"},{"inputs":[],"name":"tossCoin","outputs":[{"internalType":"bool","name":"heads","type":"bool"}],"stateMutability":"view","type":"function"}],"evm":{"bytecode":{"linkReferences":{},"object":"608060405234801561001057600080fd5b5060c78061001f6000396000f3fe6080604052348015600f57600080fd5b506004361060325760003560e01c8063b41e8cad146037578063dbdff2c1146052575b600080fd5b603d605f565b60405190151581526020015b60405180910390f35b6040514481526020016049565b6000606a6002446070565b15919050565b600082608c57634e487b7160e01b600052601260045260246000fd5b50069056fea2646970667358221220c6baa8ec90bb6144dd296f7e6f18046c4e8beb2b6561aac63801cf1d03a73f3464736f6c63430008130033","opcodes":"PUSH1 0x80 PUSH1 0x40 MSTORE CALLVALUE DUP1 ISZERO PUSH2 0x10 JUMPI PUSH1 0x0 DUP1 REVERT JUMPDEST POP PUSH1 0xC7 DUP1 PUSH2 0x1F PUSH1 0x0 CODECOPY PUSH1 0x0 RETURN INVALID PUSH1 0x80 PUSH1 0x40 MSTORE CALLVALUE DUP1 ISZERO PUSH1 0xF JUMPI PUSH1 0x0 DUP1 REVERT JUMPDEST POP PUSH1 0x4 CALLDATASIZE LT PUSH1 0x32 JUMPI PUSH1 0x0 CALLDATALOAD PUSH1 0xE0 SHR DUP1 PUSH4 0xB41E8CAD EQ PUSH1 0x37 JUMPI DUP1 PUSH4 0xDBDFF2C1 EQ PUSH1 0x52 JUMPI JUMPDEST PUSH1 0x0 DUP1 REVERT JUMPDEST PUSH1 0x3D PUSH1 0x5F JUMP JUMPDEST PUSH1 0x40 MLOAD SWAP1 ISZERO ISZERO DUP2 MSTORE PUSH1 0x20 ADD JUMPDEST PUSH1 0x40 MLOAD DUP1 SWAP2 SUB SWAP1 RETURN JUMPDEST PUSH1 0x40 MLOAD PREVRANDAO DUP2 MSTORE PUSH1 0x20 ADD PUSH1 0x49 JUMP JUMPDEST PUSH1 0x0 PUSH1 0x6A PUSH1 0x2 PREVRANDAO PUSH1 0x70 JUMP JUMPDEST ISZERO SWAP2 SWAP1 POP JUMP JUMPDEST PUSH1 0x0 DUP3 PUSH1 0x8C JUMPI PUSH4 0x4E487B71 PUSH1 0xE0 SHL PUSH1 0x0 MSTORE PUSH1 0x12 PUSH1 0x4 MSTORE PUSH1 0x24 PUSH1 0x0 REVERT JUMPDEST POP MOD SWAP1 JUMP INVALID LOG2 PUSH5 0x6970667358 0x22 SLT KECCAK256 0xC6 0xBA 0xA8 0xEC SWAP1 0xBB PUSH2 0x44DD 0x29 PUSH16 0x7E6F18046C4E8BEB2B6561AAC63801CF SAR SUB 0xA7 EXTCODEHASH CALLVALUE PUSH5 0x736F6C6343 STOP ADDMOD SGT STOP CALLER "},"methodIdentifiers":{"getRandomNumber()":"dbdff2c1","tossCoin()":"b41e8cad"}}}}}