{"contracts/NotQuiteRandom.sol":{"NotQuiteRandom":{"abi":[{"inputs":[],"name":"getRandomNumber","outputs":[{"internalType":"uint256","name":"notQuiteRandomNumber","type":"uint256"}],"stateMutability":"view","type":"function"},{"inputs":[],"name":"tossCoin","outputs":[{"internalType":"bool","name":"heads","type":"bool"}],"stateMutability":"view","type":"function"}],"evm":{"bytecode":{"linkReferences":{},"object":"6080604052348015600f57600080fd5b50608f8061001e6000396000f3fe6080604052348015600f57600080fd5b506004361060325760003560e01c8063b41e8cad146037578063dbdff2c114604b575b600080fd5b604051600081526020015b60405180910390f35b60405143408152602001604256fea2646970667358221220eec8084d45b6aa4ca218b5d1aaede931ccada2fc9f7bb46f5fbbd95d3a13ee9064736f6c63430008130033","opcodes":"PUSH1 0x80 PUSH1 0x40 MSTORE CALLVALUE DUP1 ISZERO PUSH1 0xF JUMPI PUSH1 0x0 DUP1 REVERT JUMPDEST POP PUSH1 0x8F DUP1 PUSH2 0x1E PUSH1 0x0 CODECOPY PUSH1 0x0 RETURN INVALID PUSH1 0x80 PUSH1 0x40 MSTORE CALLVALUE DUP1 ISZERO PUSH1 0xF JUMPI PUSH1 0x0 DUP1 REVERT JUMPDEST POP PUSH1 0x4 CALLDATASIZE LT PUSH1 0x32 JUMPI PUSH1 0x0 CALLDATALOAD PUSH1 0xE0 SHR DUP1 PUSH4 0xB41E8CAD EQ PUSH1 0x37 JUMPI DUP1 PUSH4 0xDBDFF2C1 EQ PUSH1 0x4B JUMPI JUMPDEST PUSH1 0x0 DUP1 REVERT JUMPDEST PUSH1 0x40 MLOAD PUSH1 0x0 DUP2 MSTORE PUSH1 0x20 ADD JUMPDEST PUSH1 0x40 MLOAD DUP1 SWAP2 SUB SWAP1 RETURN JUMPDEST PUSH1 0x40 MLOAD NUMBER BLOCKHASH DUP2 MSTORE PUSH1 0x20 ADD PUSH1 0x42 JUMP INVALID LOG2 PUSH5 0x6970667358 0x22 SLT KECCAK256 0xEE 0xC8 ADDMOD 0x4D GASLIMIT 0xB6 0xAA 0x4C LOG2 XOR 0xB5 0xD1 0xAA 0xED 0xE9 BALANCE 0xCC 0xAD LOG2 0xFC SWAP16 PUSH28 0xB46F5FBBD95D3A13EE9064736F6C6343000813003300000000000000 "},"methodIdentifiers":{"getRandomNumber()":"dbdff2c1","tossCoin()":"b41e8cad"}}}}}