{"contracts/CorrectedSortedBallot.sol":{"CorrectSortedBallot":{"abi":[{"inputs":[{"internalType":"bytes32[]","name":"proposalNames","type":"bytes32[]"}],"stateMutability":"nonpayable","type":"constructor"},{"inputs":[{"internalType":"uint256","name":"","type":"uint256"}],"name":"proposals","outputs":[{"internalType":"bytes32","name":"name","type":"bytes32"},{"internalType":"uint256","name":"voteCount","type":"uint256"}],"stateMutability":"view","type":"function"},{"inputs":[{"internalType":"uint256","name":"","type":"uint256"}],"name":"proposalsBeingSorted","outputs":[{"internalType":"bytes32","name":"name","type":"bytes32"},{"internalType":"uint256","name":"voteCount","type":"uint256"}],"stateMutability":"view","type":"function"},{"inputs":[],"name":"restartSorting","outputs":[],"stateMutability":"nonpayable","type":"function"},{"inputs":[],"name":"savedIndex","outputs":[{"internalType":"uint256","name":"","type":"uint256"}],"stateMutability":"view","type":"function"},{"inputs":[{"internalType":"uint256","name":"steps","type":"uint256"}],"name":"sortProposals","outputs":[{"internalType":"bool","name":"","type":"bool"}],"stateMutability":"nonpayable","type":"function"},{"inputs":[],"name":"sorted","outputs":[{"internalType":"bool","name":"isSorted","type":"bool"}],"stateMutability":"view","type":"function"},{"inputs":[],"name":"sortedWords","outputs":[{"internalType":"uint256","name":"","type":"uint256"}],"stateMutability":"view","type":"function"},{"inputs":[],"name":"swaps","outputs":[{"internalType":"uint256","name":"","type":"uint256"}],"stateMutability":"view","type":"function"}],"evm":{"bytecode":{"linkReferences":{},"object":"608060405234801561001057600080fd5b506040516106a73803806106a783398101604081905261002f91610154565b60005b81518110156100a5576000604051806040016040528084848151811061005a5761005a610211565b6020908102919091018101518252600091810182905283546001818101865594835291819020835160029093020191825591909101519101558061009d81610227565b915050610032565b5060016004819055600080546100bc9291906100c3565b505061024e565b8280548282559060005260206000209060020281019282156101135760005260206000209160020282015b82811115610113578254825560018084015490830155600292830192909101906100ee565b5061011f929150610123565b5090565b5b8082111561011f5760008082556001820155600201610124565b634e487b7160e01b600052604160045260246000fd5b6000602080838503121561016757600080fd5b82516001600160401b038082111561017e57600080fd5b818501915085601f83011261019257600080fd5b8151818111156101a4576101a461013e565b8060051b604051601f19603f830116810181811085821117156101c9576101c961013e565b6040529182528482019250838101850191888311156101e757600080fd5b938501935b82851015610205578451845293850193928501926101ec565b98975050505050505050565b634e487b7160e01b600052603260045260246000fd5b60006001820161024757634e487b7160e01b600052601160045260246000fd5b5060010190565b61044a8061025d6000396000f3fe608060405234801561001057600080fd5b50600436106100785760003560e01c8063013cf08b1461007d578063214d84b8146100aa5780632de2c5ac146100b457806331b8f1e5146100cc5780634c984185146100e35780637058201e146100ec578063c06d6344146100f5578063e4420c3514610108575b600080fd5b61009061008b36600461039d565b61011b565b604080519283526020830191909152015b60405180910390f35b6100b2610149565b005b600054600354145b60405190151581526020016100a1565b6100d560045481565b6040519081526020016100a1565b6100d560025481565b6100d560035481565b61009061010336600461039d565b61016b565b6100bc61011636600461039d565b61017b565b6000818154811061012b57600080fd5b60009182526020909120600290910201805460019091015490915082565b6000600281905560038190556001600481905581546101689290610322565b50565b6001818154811061012b57600080fd5b6000805b60015460035410156103085782811061019b5750600092915050565b600154600454106101c8576002546001546101b691906103cc565b600355600060025560016004556102f6565b60006001806004546101da91906103cc565b815481106101ea576101ea6103e5565b60009182526020808320604080518082019091526002909302018054835260010154908201526004548254919350908110610227576102276103e5565b6000918252602090912060029091020154815111156102f457600160045481548110610255576102556103e5565b906000526020600020906002020160018060045461027391906103cc565b81548110610283576102836103e5565b90600052602060002090600202016000820154816000015560018201548160010155905050806001600454815481106102be576102be6103e5565b6000918252602080832084516002938402909101908155930151600190930192909255815491906102ee836103fb565b91905055505b505b80610300816103fb565b91505061017f565b6001805461031891600091610322565b5060019392505050565b8280548282559060005260206000209060020281019282156103725760005260206000209160020282015b828111156103725782548255600180840154908301556002928301929091019061034d565b5061037e929150610382565b5090565b5b8082111561037e5760008082556001820155600201610383565b6000602082840312156103af57600080fd5b5035919050565b634e487b7160e01b600052601160045260246000fd5b818103818111156103df576103df6103b6565b92915050565b634e487b7160e01b600052603260045260246000fd5b60006001820161040d5761040d6103b6565b506001019056fea26469706673582212205f49865df4e22f1b5f229472cd3937dce83ef940c8710ca16783f872f0ec483564736f6c63430008130033","opcodes":"PUSH1 0x80 PUSH1 0x40 MSTORE CALLVALUE DUP1 ISZERO PUSH2 0x10 JUMPI PUSH1 0x0 DUP1 REVERT JUMPDEST POP PUSH1 0x40 MLOAD PUSH2 0x6A7 CODESIZE SUB DUP1 PUSH2 0x6A7 DUP4 CODECOPY DUP2 ADD PUSH1 0x40 DUP2 SWAP1 MSTORE PUSH2 0x2F SWAP2 PUSH2 0x154 JUMP JUMPDEST PUSH1 0x0 JUMPDEST DUP2 MLOAD DUP2 LT ISZERO PUSH2 0xA5 JUMPI PUSH1 0x0 PUSH1 0x40 MLOAD DUP1 PUSH1 0x40 ADD PUSH1 0x40 MSTORE DUP1 DUP5 DUP5 DUP2 MLOAD DUP2 LT PUSH2 0x5A JUMPI PUSH2 0x5A PUSH2 0x211 JUMP JUMPDEST PUSH1 0x20 SWAP1 DUP2 MUL SWAP2 SWAP1 SWAP2 ADD DUP2 ADD MLOAD DUP3 MSTORE PUSH1 0x0 SWAP2 DUP2 ADD DUP3 SWAP1 MSTORE DUP4 SLOAD PUSH1 0x1 DUP2 DUP2 ADD DUP7 SSTORE SWAP5 DUP4 MSTORE SWAP2 DUP2 SWAP1 KECCAK256 DUP4 MLOAD PUSH1 0x2 SWAP1 SWAP4 MUL ADD SWAP2 DUP3 SSTORE SWAP2 SWAP1 SWAP2 ADD MLOAD SWAP2 ADD SSTORE DUP1 PUSH2 0x9D DUP2 PUSH2 0x227 JUMP JUMPDEST SWAP2 POP POP PUSH2 0x32 JUMP JUMPDEST POP PUSH1 0x1 PUSH1 0x4 DUP2 SWAP1 SSTORE PUSH1 0x0 DUP1 SLOAD PUSH2 0xBC SWAP3 SWAP2 SWAP1 PUSH2 0xC3 JUMP JUMPDEST POP POP PUSH2 0x24E JUMP JUMPDEST DUP3 DUP1 SLOAD DUP3 DUP3 SSTORE SWAP1 PUSH1 0x0 MSTORE PUSH1 0x20 PUSH1 0x0 KECCAK256 SWAP1 PUSH1 0x2 MUL DUP2 ADD SWAP3 DUP3 ISZERO PUSH2 0x113 JUMPI PUSH1 0x0 MSTORE PUSH1 0x20 PUSH1 0x0 KECCAK256 SWAP2 PUSH1 0x2 MUL DUP3 ADD JUMPDEST DUP3 DUP2 GT ISZERO PUSH2 0x113 JUMPI DUP3 SLOAD DUP3 SSTORE PUSH1 0x1 DUP1 DUP5 ADD SLOAD SWAP1 DUP4 ADD SSTORE PUSH1 0x2 SWAP3 DUP4 ADD SWAP3 SWAP1 SWAP2 ADD SWAP1 PUSH2 0xEE JUMP JUMPDEST POP PUSH2 0x11F SWAP3 SWAP2 POP PUSH2 0x123 JUMP JUMPDEST POP SWAP1 JUMP JUMPDEST JUMPDEST DUP1 DUP3 GT ISZERO PUSH2 0x11F JUMPI PUSH1 0x0 DUP1 DUP3 SSTORE PUSH1 0x1 DUP3 ADD SSTORE PUSH1 0x2 ADD PUSH2 0x124 JUMP JUMPDEST PUSH4 0x4E487B71 PUSH1 0xE0 SHL PUSH1 0x0 MSTORE PUSH1 0x41 PUSH1 0x4 MSTORE PUSH1 0x24 PUSH1 0x0 REVERT JUMPDEST PUSH1 0x0 PUSH1 0x20 DUP1 DUP4 DUP6 SUB SLT ISZERO PUSH2 0x167 JUMPI PUSH1 0x0 DUP1 REVERT JUMPDEST DUP3 MLOAD PUSH1 0x1 PUSH1 0x1 PUSH1 0x40 SHL SUB DUP1 DUP3 GT ISZERO PUSH2 0x17E JUMPI PUSH1 0x0 DUP1 REVERT JUMPDEST DUP2 DUP6 ADD SWAP2 POP DUP6 PUSH1 0x1F DUP4 ADD SLT PUSH2 0x192 JUMPI PUSH1 0x0 DUP1 REVERT JUMPDEST DUP2 MLOAD DUP2 DUP2 GT ISZERO PUSH2 0x1A4 JUMPI PUSH2 0x1A4 PUSH2 0x13E JUMP JUMPDEST DUP1 PUSH1 0x5 SHL PUSH1 0x40 MLOAD PUSH1 0x1F NOT PUSH1 0x3F DUP4 ADD AND DUP2 ADD DUP2 DUP2 LT DUP6 DUP3 GT OR ISZERO PUSH2 0x1C9 JUMPI PUSH2 0x1C9 PUSH2 0x13E JUMP JUMPDEST PUSH1 0x40 MSTORE SWAP2 DUP3 MSTORE DUP5 DUP3 ADD SWAP3 POP DUP4 DUP2 ADD DUP6 ADD SWAP2 DUP9 DUP4 GT ISZERO PUSH2 0x1E7 JUMPI PUSH1 0x0 DUP1 REVERT JUMPDEST SWAP4 DUP6 ADD SWAP4 JUMPDEST DUP3 DUP6 LT ISZERO PUSH2 0x205 JUMPI DUP5 MLOAD DUP5 MSTORE SWAP4 DUP6 ADD SWAP4 SWAP3 DUP6 ADD SWAP3 PUSH2 0x1EC JUMP JUMPDEST SWAP9 SWAP8 POP POP POP POP POP POP POP POP JUMP JUMPDEST PUSH4 0x4E487B71 PUSH1 0xE0 SHL PUSH1 0x0 MSTORE PUSH1 0x32 PUSH1 0x4 MSTORE PUSH1 0x24 PUSH1 0x0 REVERT JUMPDEST PUSH1 0x0 PUSH1 0x1 DUP3 ADD PUSH2 0x247 JUMPI PUSH4 0x4E487B71 PUSH1 0xE0 SHL PUSH1 0x0 MSTORE PUSH1 0x11 PUSH1 0x4 MSTORE PUSH1 0x24 PUSH1 0x0 REVERT JUMPDEST POP PUSH1 0x1 ADD SWAP1 JUMP JUMPDEST PUSH2 0x44A DUP1 PUSH2 0x25D PUSH1 0x0 CODECOPY PUSH1 0x0 RETURN INVALID PUSH1 0x80 PUSH1 0x40 MSTORE CALLVALUE DUP1 ISZERO PUSH2 0x10 JUMPI PUSH1 0x0 DUP1 REVERT JUMPDEST POP PUSH1 0x4 CALLDATASIZE LT PUSH2 0x78 JUMPI PUSH1 0x0 CALLDATALOAD PUSH1 0xE0 SHR DUP1 PUSH4 0x13CF08B EQ PUSH2 0x7D JUMPI DUP1 PUSH4 0x214D84B8 EQ PUSH2 0xAA JUMPI DUP1 PUSH4 0x2DE2C5AC EQ PUSH2 0xB4 JUMPI DUP1 PUSH4 0x31B8F1E5 EQ PUSH2 0xCC JUMPI DUP1 PUSH4 0x4C984185 EQ PUSH2 0xE3 JUMPI DUP1 PUSH4 0x7058201E EQ PUSH2 0xEC JUMPI DUP1 PUSH4 0xC06D6344 EQ PUSH2 0xF5 JUMPI DUP1 PUSH4 0xE4420C35 EQ PUSH2 0x108 JUMPI JUMPDEST PUSH1 0x0 DUP1 REVERT JUMPDEST PUSH2 0x90 PUSH2 0x8B CALLDATASIZE PUSH1 0x4 PUSH2 0x39D JUMP JUMPDEST PUSH2 0x11B JUMP JUMPDEST PUSH1 0x40 DUP1 MLOAD SWAP3 DUP4 MSTORE PUSH1 0x20 DUP4 ADD SWAP2 SWAP1 SWAP2 MSTORE ADD JUMPDEST PUSH1 0x40 MLOAD DUP1 SWAP2 SUB SWAP1 RETURN JUMPDEST PUSH2 0xB2 PUSH2 0x149 JUMP JUMPDEST STOP JUMPDEST PUSH1 0x0 SLOAD PUSH1 0x3 SLOAD EQ JUMPDEST PUSH1 0x40 MLOAD SWAP1 ISZERO ISZERO DUP2 MSTORE PUSH1 0x20 ADD PUSH2 0xA1 JUMP JUMPDEST PUSH2 0xD5 PUSH1 0x4 SLOAD DUP2 JUMP JUMPDEST PUSH1 0x40 MLOAD SWAP1 DUP2 MSTORE PUSH1 0x20 ADD PUSH2 0xA1 JUMP JUMPDEST PUSH2 0xD5 PUSH1 0x2 SLOAD DUP2 JUMP JUMPDEST PUSH2 0xD5 PUSH1 0x3 SLOAD DUP2 JUMP JUMPDEST PUSH2 0x90 PUSH2 0x103 CALLDATASIZE PUSH1 0x4 PUSH2 0x39D JUMP JUMPDEST PUSH2 0x16B JUMP JUMPDEST PUSH2 0xBC PUSH2 0x116 CALLDATASIZE PUSH1 0x4 PUSH2 0x39D JUMP JUMPDEST PUSH2 0x17B JUMP JUMPDEST PUSH1 0x0 DUP2 DUP2 SLOAD DUP2 LT PUSH2 0x12B JUMPI PUSH1 0x0 DUP1 REVERT JUMPDEST PUSH1 0x0 SWAP2 DUP3 MSTORE PUSH1 0x20 SWAP1 SWAP2 KECCAK256 PUSH1 0x2 SWAP1 SWAP2 MUL ADD DUP1 SLOAD PUSH1 0x1 SWAP1 SWAP2 ADD SLOAD SWAP1 SWAP2 POP DUP3 JUMP JUMPDEST PUSH1 0x0 PUSH1 0x2 DUP2 SWAP1 SSTORE PUSH1 0x3 DUP2 SWAP1 SSTORE PUSH1 0x1 PUSH1 0x4 DUP2 SWAP1 SSTORE DUP2 SLOAD PUSH2 0x168 SWAP3 SWAP1 PUSH2 0x322 JUMP JUMPDEST POP JUMP JUMPDEST PUSH1 0x1 DUP2 DUP2 SLOAD DUP2 LT PUSH2 0x12B JUMPI PUSH1 0x0 DUP1 REVERT JUMPDEST PUSH1 0x0 DUP1 JUMPDEST PUSH1 0x1 SLOAD PUSH1 0x3 SLOAD LT ISZERO PUSH2 0x308 JUMPI DUP3 DUP2 LT PUSH2 0x19B JUMPI POP PUSH1 0x0 SWAP3 SWAP2 POP POP JUMP JUMPDEST PUSH1 0x1 SLOAD PUSH1 0x4 SLOAD LT PUSH2 0x1C8 JUMPI PUSH1 0x2 SLOAD PUSH1 0x1 SLOAD PUSH2 0x1B6 SWAP2 SWAP1 PUSH2 0x3CC JUMP JUMPDEST PUSH1 0x3 SSTORE PUSH1 0x0 PUSH1 0x2 SSTORE PUSH1 0x1 PUSH1 0x4 SSTORE PUSH2 0x2F6 JUMP JUMPDEST PUSH1 0x0 PUSH1 0x1 DUP1 PUSH1 0x4 SLOAD PUSH2 0x1DA SWAP2 SWAP1 PUSH2 0x3CC JUMP JUMPDEST DUP2 SLOAD DUP2 LT PUSH2 0x1EA JUMPI PUSH2 0x1EA PUSH2 0x3E5 JUMP JUMPDEST PUSH1 0x0 SWAP2 DUP3 MSTORE PUSH1 0x20 DUP1 DUP4 KECCAK256 PUSH1 0x40 DUP1 MLOAD DUP1 DUP3 ADD SWAP1 SWAP2 MSTORE PUSH1 0x2 SWAP1 SWAP4 MUL ADD DUP1 SLOAD DUP4 MSTORE PUSH1 0x1 ADD SLOAD SWAP1 DUP3 ADD MSTORE PUSH1 0x4 SLOAD DUP3 SLOAD SWAP2 SWAP4 POP SWAP1 DUP2 LT PUSH2 0x227 JUMPI PUSH2 0x227 PUSH2 0x3E5 JUMP JUMPDEST PUSH1 0x0 SWAP2 DUP3 MSTORE PUSH1 0x20 SWAP1 SWAP2 KECCAK256 PUSH1 0x2 SWAP1 SWAP2 MUL ADD SLOAD DUP2 MLOAD GT ISZERO PUSH2 0x2F4 JUMPI PUSH1 0x1 PUSH1 0x4 SLOAD DUP2 SLOAD DUP2 LT PUSH2 0x255 JUMPI PUSH2 0x255 PUSH2 0x3E5 JUMP JUMPDEST SWAP1 PUSH1 0x0 MSTORE PUSH1 0x20 PUSH1 0x0 KECCAK256 SWAP1 PUSH1 0x2 MUL ADD PUSH1 0x1 DUP1 PUSH1 0x4 SLOAD PUSH2 0x273 SWAP2 SWAP1 PUSH2 0x3CC JUMP JUMPDEST DUP2 SLOAD DUP2 LT PUSH2 0x283 JUMPI PUSH2 0x283 PUSH2 0x3E5 JUMP JUMPDEST SWAP1 PUSH1 0x0 MSTORE PUSH1 0x20 PUSH1 0x0 KECCAK256 SWAP1 PUSH1 0x2 MUL ADD PUSH1 0x0 DUP3 ADD SLOAD DUP2 PUSH1 0x0 ADD SSTORE PUSH1 0x1 DUP3 ADD SLOAD DUP2 PUSH1 0x1 ADD SSTORE SWAP1 POP POP DUP1 PUSH1 0x1 PUSH1 0x4 SLOAD DUP2 SLOAD DUP2 LT PUSH2 0x2BE JUMPI PUSH2 0x2BE PUSH2 0x3E5 JUMP JUMPDEST PUSH1 0x0 SWAP2 DUP3 MSTORE PUSH1 0x20 DUP1 DUP4 KECCAK256 DUP5 MLOAD PUSH1 0x2 SWAP4 DUP5 MUL SWAP1 SWAP2 ADD SWAP1 DUP2 SSTORE SWAP4 ADD MLOAD PUSH1 0x1 SWAP1 SWAP4 ADD SWAP3 SWAP1 SWAP3 SSTORE DUP2 SLOAD SWAP2 SWAP1 PUSH2 0x2EE DUP4 PUSH2 0x3FB JUMP JUMPDEST SWAP2 SWAP1 POP SSTORE POP JUMPDEST POP JUMPDEST DUP1 PUSH2 0x300 DUP2 PUSH2 0x3FB JUMP JUMPDEST SWAP2 POP POP PUSH2 0x17F JUMP JUMPDEST PUSH1 0x1 DUP1 SLOAD PUSH2 0x318 SWAP2 PUSH1 0x0 SWAP2 PUSH2 0x322 JUMP JUMPDEST POP PUSH1 0x1 SWAP4 SWAP3 POP POP POP JUMP JUMPDEST DUP3 DUP1 SLOAD DUP3 DUP3 SSTORE SWAP1 PUSH1 0x0 MSTORE PUSH1 0x20 PUSH1 0x0 KECCAK256 SWAP1 PUSH1 0x2 MUL DUP2 ADD SWAP3 DUP3 ISZERO PUSH2 0x372 JUMPI PUSH1 0x0 MSTORE PUSH1 0x20 PUSH1 0x0 KECCAK256 SWAP2 PUSH1 0x2 MUL DUP3 ADD JUMPDEST DUP3 DUP2 GT ISZERO PUSH2 0x372 JUMPI DUP3 SLOAD DUP3 SSTORE PUSH1 0x1 DUP1 DUP5 ADD SLOAD SWAP1 DUP4 ADD SSTORE PUSH1 0x2 SWAP3 DUP4 ADD SWAP3 SWAP1 SWAP2 ADD SWAP1 PUSH2 0x34D JUMP JUMPDEST POP PUSH2 0x37E SWAP3 SWAP2 POP PUSH2 0x382 JUMP JUMPDEST POP SWAP1 JUMP JUMPDEST JUMPDEST DUP1 DUP3 GT ISZERO PUSH2 0x37E JUMPI PUSH1 0x0 DUP1 DUP3 SSTORE PUSH1 0x1 DUP3 ADD SSTORE PUSH1 0x2 ADD PUSH2 0x383 JUMP JUMPDEST PUSH1 0x0 PUSH1 0x20 DUP3 DUP5 SUB SLT ISZERO PUSH2 0x3AF JUMPI PUSH1 0x0 DUP1 REVERT JUMPDEST POP CALLDATALOAD SWAP2 SWAP1 POP JUMP JUMPDEST PUSH4 0x4E487B71 PUSH1 0xE0 SHL PUSH1 0x0 MSTORE PUSH1 0x11 PUSH1 0x4 MSTORE PUSH1 0x24 PUSH1 0x0 REVERT JUMPDEST DUP2 DUP2 SUB DUP2 DUP2 GT ISZERO PUSH2 0x3DF JUMPI PUSH2 0x3DF PUSH2 0x3B6 JUMP JUMPDEST SWAP3 SWAP2 POP POP JUMP JUMPDEST PUSH4 0x4E487B71 PUSH1 0xE0 SHL PUSH1 0x0 MSTORE PUSH1 0x32 PUSH1 0x4 MSTORE PUSH1 0x24 PUSH1 0x0 REVERT JUMPDEST PUSH1 0x0 PUSH1 0x1 DUP3 ADD PUSH2 0x40D JUMPI PUSH2 0x40D PUSH2 0x3B6 JUMP JUMPDEST POP PUSH1 0x1 ADD SWAP1 JUMP INVALID LOG2 PUSH5 0x6970667358 0x22 SLT KECCAK256 0x5F 0x49 DUP7 0x5D DELEGATECALL 0xE2 0x2F SHL 0x5F 0x22 SWAP5 PUSH19 0xCD3937DCE83EF940C8710CA16783F872F0EC48 CALLDATALOAD PUSH5 0x736F6C6343 STOP ADDMOD SGT STOP CALLER "},"methodIdentifiers":{"proposals(uint256)":"013cf08b","proposalsBeingSorted(uint256)":"c06d6344","restartSorting()":"214d84b8","savedIndex()":"31b8f1e5","sortProposals(uint256)":"e4420c35","sorted()":"2de2c5ac","sortedWords()":"7058201e","swaps()":"4c984185"}}}}}