{
  "_format": "hh-sol-artifact-1",
  "contractName": "CorrectSortedBallot",
  "sourceName": "contracts/CorrectedSortedBallot.sol",
  "abi": [
    {
      "inputs": [
        {
          "internalType": "bytes32[]",
          "name": "proposalNames",
          "type": "bytes32[]"
        }
      ],
      "stateMutability": "nonpayable",
      "type": "constructor"
    },
    {
      "inputs": [
        {
          "internalType": "uint256",
          "name": "",
          "type": "uint256"
        }
      ],
      "name": "proposals",
      "outputs": [
        {
          "internalType": "bytes32",
          "name": "name",
          "type": "bytes32"
        },
        {
          "internalType": "uint256",
          "name": "voteCount",
          "type": "uint256"
        }
      ],
      "stateMutability": "view",
      "type": "function"
    },
    {
      "inputs": [
        {
          "internalType": "uint256",
          "name": "",
          "type": "uint256"
        }
      ],
      "name": "proposalsBeingSorted",
      "outputs": [
        {
          "internalType": "bytes32",
          "name": "name",
          "type": "bytes32"
        },
        {
          "internalType": "uint256",
          "name": "voteCount",
          "type": "uint256"
        }
      ],
      "stateMutability": "view",
      "type": "function"
    },
    {
      "inputs": [],
      "name": "restartSorting",
      "outputs": [],
      "stateMutability": "nonpayable",
      "type": "function"
    },
    {
      "inputs": [],
      "name": "savedIndex",
      "outputs": [
        {
          "internalType": "uint256",
          "name": "",
          "type": "uint256"
        }
      ],
      "stateMutability": "view",
      "type": "function"
    },
    {
      "inputs": [
        {
          "internalType": "uint256",
          "name": "steps",
          "type": "uint256"
        }
      ],
      "name": "sortProposals",
      "outputs": [
        {
          "internalType": "bool",
          "name": "",
          "type": "bool"
        }
      ],
      "stateMutability": "nonpayable",
      "type": "function"
    },
    {
      "inputs": [],
      "name": "sorted",
      "outputs": [
        {
          "internalType": "bool",
          "name": "isSorted",
          "type": "bool"
        }
      ],
      "stateMutability": "view",
      "type": "function"
    },
    {
      "inputs": [],
      "name": "sortedWords",
      "outputs": [
        {
          "internalType": "uint256",
          "name": "",
          "type": "uint256"
        }
      ],
      "stateMutability": "view",
      "type": "function"
    },
    {
      "inputs": [],
      "name": "swaps",
      "outputs": [
        {
          "internalType": "uint256",
          "name": "",
          "type": "uint256"
        }
      ],
      "stateMutability": "view",
      "type": "function"
    }
  ],
  "bytecode": "0x608060405234801561001057600080fd5b506040516106a73803806106a783398101604081905261002f91610154565b60005b81518110156100a5576000604051806040016040528084848151811061005a5761005a610211565b6020908102919091018101518252600091810182905283546001818101865594835291819020835160029093020191825591909101519101558061009d81610227565b915050610032565b5060016004819055600080546100bc9291906100c3565b505061024e565b8280548282559060005260206000209060020281019282156101135760005260206000209160020282015b82811115610113578254825560018084015490830155600292830192909101906100ee565b5061011f929150610123565b5090565b5b8082111561011f5760008082556001820155600201610124565b634e487b7160e01b600052604160045260246000fd5b6000602080838503121561016757600080fd5b82516001600160401b038082111561017e57600080fd5b818501915085601f83011261019257600080fd5b8151818111156101a4576101a461013e565b8060051b604051601f19603f830116810181811085821117156101c9576101c961013e565b6040529182528482019250838101850191888311156101e757600080fd5b938501935b82851015610205578451845293850193928501926101ec565b98975050505050505050565b634e487b7160e01b600052603260045260246000fd5b60006001820161024757634e487b7160e01b600052601160045260246000fd5b5060010190565b61044a8061025d6000396000f3fe608060405234801561001057600080fd5b50600436106100785760003560e01c8063013cf08b1461007d578063214d84b8146100aa5780632de2c5ac146100b457806331b8f1e5146100cc5780634c984185146100e35780637058201e146100ec578063c06d6344146100f5578063e4420c3514610108575b600080fd5b61009061008b36600461039d565b61011b565b604080519283526020830191909152015b60405180910390f35b6100b2610149565b005b600054600354145b60405190151581526020016100a1565b6100d560045481565b6040519081526020016100a1565b6100d560025481565b6100d560035481565b61009061010336600461039d565b61016b565b6100bc61011636600461039d565b61017b565b6000818154811061012b57600080fd5b60009182526020909120600290910201805460019091015490915082565b6000600281905560038190556001600481905581546101689290610322565b50565b6001818154811061012b57600080fd5b6000805b60015460035410156103085782811061019b5750600092915050565b600154600454106101c8576002546001546101b691906103cc565b600355600060025560016004556102f6565b60006001806004546101da91906103cc565b815481106101ea576101ea6103e5565b60009182526020808320604080518082019091526002909302018054835260010154908201526004548254919350908110610227576102276103e5565b6000918252602090912060029091020154815111156102f457600160045481548110610255576102556103e5565b906000526020600020906002020160018060045461027391906103cc565b81548110610283576102836103e5565b90600052602060002090600202016000820154816000015560018201548160010155905050806001600454815481106102be576102be6103e5565b6000918252602080832084516002938402909101908155930151600190930192909255815491906102ee836103fb565b91905055505b505b80610300816103fb565b91505061017f565b6001805461031891600091610322565b5060019392505050565b8280548282559060005260206000209060020281019282156103725760005260206000209160020282015b828111156103725782548255600180840154908301556002928301929091019061034d565b5061037e929150610382565b5090565b5b8082111561037e5760008082556001820155600201610383565b6000602082840312156103af57600080fd5b5035919050565b634e487b7160e01b600052601160045260246000fd5b818103818111156103df576103df6103b6565b92915050565b634e487b7160e01b600052603260045260246000fd5b60006001820161040d5761040d6103b6565b506001019056fea26469706673582212205f49865df4e22f1b5f229472cd3937dce83ef940c8710ca16783f872f0ec483564736f6c63430008130033",
  "linkReferences": {},
  "deployedLinkReferences": {}
}